:020000040800F2
:1000000000000120892200080122000809220008BE
:100010001122000819220008212200080000000017
:1000200000000000000000000000000071750008E2
:100030002922000800000000C1770008414A00089A
:10004000D9220008D9220008D9220008D9220008A4
:10005000D9220008D9220008D92200083922000834
:10006000D9220008D9220008D9220008D922000884
:10007000D9220008D9220008D9220008D922000874
:10008000D9220008D9220008D92200080000000067
:10009000000000000000000000000000D92200085D
:1000A000D9220008D9220008D9220008D922000844
:1000B00051220008D9220008D9220008D9220008BC
:1000C000D9220008D9220008D9220008D922000824
:1000D000D9220008D9220008D92200080000000017
:1000E000D9220008D9220008D92200080000000007
:1000F000000000000000000000000000D9220008FD
:1001000000000000D9220008D9220008D9220008E6
:1001100000000000000000000000000000000000DF
:10012000D9220008D9220008D9220008D9220008C3
:10013000D9220008000000000000000000000000BC
:10014000000000000000000000000000D9220008AC
:10015000D9220008D9220008D9220008D922000893
:10016000D9220008D9220008000000000000000089
:10017000000000000000000000000000000000007F
:1001800000000000D922000800000000000000006C
:04019000D922000868
:1001A00010B5054C237833B9044B13B10448AFF3B1
:1001B00000800123237010BD6400002000000000B7
:1001C000187F000808B5034B1BB103490348AFF380
:1001D000008008BD0000000068000020187F0008B3
:1001E00081F0004102E000BF83F0004330B54FEAE8
:1001F00041044FEA430594EA050F08BF90EA020F55
:100200001FBF54EA000C55EA020C7FEA645C7FEAE7
:10021000655C00F0E2804FEA5454D4EB5555B8BF0A
:100220006D420CDD2C4480EA020281EA030382EA7B
:10023000000083EA010180EA020281EA0303362D0D
:1002400088BF30BD11F0004F4FEA01314FF4801CE0
:100250004CEA113102D0404261EB410113F0004FF2
:100260004FEA03334CEA133302D0524263EB4303A9
:1002700094EA050F00F0A780A4F10104D5F1200E47
:100280000DDB02FA0EFC22FA05F2801841F10001A2
:1002900003FA0EF2801843FA05F359410EE0A5F176
:1002A00020050EF1200E012A03FA0EFC28BF4CF0A7
:1002B000020C43FA05F3C01851EBE37101F000455D
:1002C00007D54FF0000EDCF1000C7EEB00006EEB6A
:1002D0000101B1F5801F1BD3B1F5001F0CD34908F4
:1002E0005FEA30004FEA3C0C04F101044FEA44524B
:1002F00012F5800F80F09A80BCF1004F08BF5FEAD2
:10030000500C50F1000041EB045141EA050130BDB1
:100310005FEA4C0C404141EB0101013C28BFB1F5C3
:10032000801FE9D291F0000F04BF01460020B1FA0E
:1003300081F308BF2033A3F10B03B3F120020CDAE1
:100340000C3208DD02F1140CC2F10C0201FA0CF0BF
:1003500021FA02F10CE002F11402D8BFC2F1200C24
:1003600001FA02F120FA0CFCDCBF41EA0C019040DA
:10037000E41AA2BF01EB0451294330BD6FEA040423
:100380001F3C1CDA0C340EDC04F11404C4F120020E
:1003900020FA04F001FA02F340EA030021FA04F320
:1003A00045EA030130BDC4F10C04C4F1200220FA77
:1003B00002F001FA04F340EA0300294630BD21FAB5
:1003C00004F0294630BD94F0000F83F4801306BF7B
:1003D00081F480110134013D4EE77FEA645C18BF6F
:1003E0007FEA655C29D094EA050F08BF90EA020F06
:1003F00005D054EA000C04BF1946104630BD91EAFE
:10040000030F1EBF0021002030BD5FEA545C05D100
:100410004000494128BF41F0004130BD14F580043F
:100420003CBF01F5801130BD01F0004545F0FE41B3
:1004300041F470014FF0000030BD7FEA645C1ABFE8
:10044000194610467FEA655C1CBF0B46024650EA1F
:10045000013406BF52EA033591EA030F41F400214B
:1004600030BD00BF90F0000F04BF0021704730B5D1
:100470004FF4806404F132044FF000054FF00001A6
:1004800050E700BF90F0000F04BF0021704730B567
:100490004FF4806404F1320410F0004548BF40423C
:1004A0004FF000013EE700BF42004FEAE2014FEA91
:1004B00031014FEA02701FBF12F07F4393F07F4F6C
:1004C00081F06051704732F07F4208BF704793F06F
:1004D0007F4F04BF41F40021704730B54FF4607482
:1004E00001F0004521F000411CE700BF50EA010285
:1004F00008BF704730B54FF000050AE050EA01022E
:1005000008BF704730B511F0004502D5404261EB9D
:1005100041014FF4806404F132045FEA915C3FF4DE
:10052000D8AE4FF003025FEADC0C18BF03325FEA7B
:10053000DC0C18BF033202EBDC02C2F1200300FA2C
:1005400003FC20FA02F001FA03FE40EA0E0021FA51
:1005500002F11444BDE600BF70B54FF0FF0C4CF43F
:10056000E06C1CEA11541DBF1CEA135594EA0C0FF1
:1005700095EA0C0F00F0DEF82C4481EA030621EA2C
:100580004C5123EA4C5350EA013518BF52EA033567
:1005900041F4801143F4801338D0A0FB02CE4FF019
:1005A0000005E1FB02E506F00042E0FB03E54FF049
:1005B0000006E1FB03569CF0000F18BF4EF0010E41
:1005C000A4F1FF04B6F5007F64F5407404D25FEA3D
:1005D0004E0E6D4146EB060642EAC62141EA5551F0
:1005E0004FEAC52040EA5E504FEACE2EB4F1FD0C32
:1005F00088BFBCF5E06F1ED8BEF1004F08BF5FEAB0
:10060000500E50F1000041EB045170BD06F0004661
:1006100046EA010140EA020081EA0301B4EB5C040E
:10062000C2BFD4EB0C0541EA045170BD41F4801106
:100630004FF0000E013C00F3AB8014F1360FDEBF2B
:10064000002001F0004170BDC4F10004203C35DA07
:100650000C341BDC04F11404C4F1200500FA05F38A
:1006600020FA04F001FA05F240EA020001F000422B
:1006700021F0004110EBD37021FA04F642EB0601A1
:100680005EEA430E08BF20EAD37070BDC4F10C04CB
:10069000C4F1200500FA04F320FA05F001FA04F28F
:1006A00040EA020001F0004110EBD37041F100017B
:1006B0005EEA430E08BF20EAD37070BDC4F1200586
:1006C00000FA05F24EEA020E20FA04F301FA05F2EE
:1006D00043EA020321FA04F001F0004121FA04F296
:1006E00020EA020000EBD3705EEA430E08BF20EA66
:1006F000D37070BD94F0000F0FD101F000464000A0
:1007000041EB010111F4801F08BF013CF7D041EA21
:10071000060195F0000F18BF704703F00046520025
:1007200043EB030313F4801F08BF013DF7D043EAF6
:100730000603704794EA0C0F0CEA135518BF95EAAC
:100740000C0F0CD050EA410618BF52EA4306D1D133
:1007500081EA030101F000414FF0000070BD50EA52
:10076000410606BF1046194652EA430619D094EADC
:100770000C0F02D150EA013613D195EA0C0F05D1C6
:1007800052EA03361CBF104619460AD181EA03011A
:1007900001F0004141F0FE4141F470014FF00000D2
:1007A00070BD41F0FE4141F4780170BD70B54FF06D
:1007B000FF0C4CF4E06C1CEA11541DBF1CEA1355ED
:1007C00094EA0C0F95EA0C0F00F0A7F8A4EB0504CF
:1007D00081EA030E52EA03354FEA013100F08880C6
:1007E0004FEA03334FF0805545EA131343EA12638F
:1007F0004FEA022245EA111545EA10654FEA002644
:100800000EF000419D4208BF964244F1FD0404F5FC
:10081000407402D25B084FEA3202B61A65EB030558
:100820005B084FEA32024FF480104FF4002CB6EB15
:10083000020E75EB030E22BFB61A754640EA0C0095
:100840005B084FEA3202B6EB020E75EB030E22BFD5
:10085000B61A754640EA5C005B084FEA3202B6EB16
:10086000020E75EB030E22BFB61A754640EA9C00D5
:100870005B084FEA3202B6EB020E75EB030E22BFA5
:10088000B61A754640EADC0055EA060E18D04FEA63
:10089000051545EA16754FEA06164FEAC30343EA03
:1008A00052734FEAC2025FEA1C1CC0D111F4801FD0
:1008B0000BD141EA00014FF000004FF0004CB6E7C9
:1008C00011F4801F04BF01430020B4F1FD0C88BF68
:1008D000BCF5E06F3FF6AFAEB5EB030C04BFB6EB73
:1008E000020C5FEA500C50F1000041EB045170BD66
:1008F0000EF0004E4EEA113114EB5C04C2BFD4EB93
:100900000C0541EA045170BD41F480114FF0000E16
:10091000013C90E645EA060E8DE60CEA135594EA92
:100920000C0F08BF95EA0C0F3FF43BAF94EA0C0F95
:100930000AD150EA01347FF434AF95EA0C0F7FF40A
:1009400025AF104619462CE795EA0C0F06D152EA5E
:1009500003353FF4FDAE1046194622E750EA410642
:1009600018BF52EA43067FF4C5AE50EA41047FF453
:100970000DAF52EA43057FF4EBAE12E74A0011D205
:1009800012F5001211D20DD56FF47873B3EB6252E9
:100990000ED44FEAC12343F0004343EA505323FAF5
:1009A00002F070474FF00000704750EA013002D16A
:1009B0004FF0FF3070474FF00000704753B94AB90D
:1009C000002908BF00281CBF4FF0FF314FF0FF3057
:1009D00000F06AB9ADF1080C6DE904CE00F006F83C
:1009E000DDF804E0DDE9022304B070472DE9F047AB
:1009F000089D0C46002B4ED194468C458646B2FA93
:100A000082F262D94AB1C2F12003914020FA03F385
:100A10000CFA02FC194300FA02FE4FEA1C471FFAC7
:100A20008CF6B1FBF7F44FEA1E4307FB141143EABF
:100A3000014304FB06F199420AD91CEB030304F1BC
:100A4000FF3080F01281994240F20F81023C6344F2
:100A5000591A1FFA8EF3B1FBF7F007FB101143EAA6
:100A6000014300FB06F69E420AD91CEB030300F18A
:100A7000FF3180F0FC809E4240F2F98063440238EE
:100A80009B1B40EA044000211DB1D3400022C5E970
:100A90000032BDE8F0878B4205D90DB1C5E90001F0
:100AA00000210846F5E7B3FA83F1002946D1A342B5
:100AB00002D39042C0F0F080861A64EB0303012059
:100AC000002DE6D0C5E90063E3E7002A40F09080FE
:100AD000A1EB0C044FEA1C481FFA8CF70121B4FB70
:100AE000F8F64FEA1E4308FB164443EA044307FBAB
:100AF00006F0984208D91CEB030306F1FF3402D23A
:100B0000984200F2CD8026461C1A1FFA8EF3B4FBE1
:100B1000F8F008FB104443EA044300FB07F79F4248
:100B200008D91CEB030300F1FF3402D29F4200F20C
:100B3000B0802046DB1B40EA0640A5E7C1F1200655
:100B40008B4022FA06F71F4320FA06FC04FA01F351
:100B500043EA0C03F44000FA01F8380C4FEA134959
:100B6000B4FBF0FE1FFA87FC00FB1E4449EA044474
:100B70000EFB0CF9A14502FA01F20AD93C190EF15B
:100B8000FF3A80F08480A14540F28180AEF1020EF0
:100B90003C44A4EB09041FFA83F9B4FBF0F300FB17
:100BA000134449EA044403FB0CFCA44507D93C194F
:100BB00003F1FF3067D2A44565D9023B3C4443EAC8
:100BC0000E40A0FB0293A4EB0C049C42CE469C4634
:100BD00051D34ED055B1B8EB0E0364EB0C0404FABC
:100BE00006F6CB401E43CC40C5E90064002150E727
:100BF000C2F1200320FA03F10CFA02FC24FA03F3F9
:100C000094400C434FEA1C4800FA02FE1FFA8CF78E
:100C1000B3FBF8F008FB1031230C43EA014300FB5F
:100C200007F1994208D91CEB030300F1FF362CD2DF
:100C300099422AD9023863445B1AA4B2B3FBF8F193
:100C400008FB113344EA034401FB07F3A34208D92C
:100C50001CEB040401F1FF3613D2A34211D902396F
:100C60006444E41A41EA004139E70446F0E60846E4
:100C700006E7C845AED2B9EB020E63EB070C0138AC
:100C8000A8E73146EDE7034699E73046D4E7D64674
:100C90007FE7634402384DE70646234608460FE7E0
:100CA000023E634430E700BF704700BF80B485B0A8
:100CB00000AF786039600023FB730023BB6009E05C
:100CC0007A68BB6813441A78FB7B1344FB73BB68D8
:100CD0000133BB60BA683B689A42F1D3FB7B18468C
:100CE0001437BD465DF8047B704780B584B000AF13
:100CF000786039603B68012B01D8002314E03B6821
:100D0000013B7A6813441B78FB733B68013B19462F
:100D10007868FFF7CBFF0346BB73BA7BFB7B9A4235
:100D20000CBF01230023DBB218461037BD4680BD3F
:100D300080B582B000AF304B1B88BB800023BB71F5
:100D40002E4A3B461268114619800233120C1A7063
:100D50002B4B1B684FF0FF31184604F029FD03466A
:100D6000012BF5D1391D4FF0FF330322254803F045
:100D700075FA0346FB7139463B1D0322184606F0FF
:100D8000D3FF0346002BEDD1FB79002B24D139464C
:100D90003B1D0322184606F0C7FF0346002B1BD15C
:100DA00019494FF0FF330822164803F057FA03465B
:100DB000FB71FB79002B0FD1144B3A1D12681146C1
:100DC00019800233120C1A7008211048FFF78DFFAA
:100DD00003461A460E4B1A700D4B1B78002BC1D0E0
:100DE0000B4B00221A700B4B1868002300220021C5
:100DF00004F05CFAACE700BF307F0008347F0008E5
:100E000014020020C0010020830000208000002088
:100E1000880000201802002080B500AF00F04EFAD4
:100E20000021124802F0FAFA0421104802F0F6FA02
:100E300008210E4802F0F2FA3C210D4802F044FC71
:100E40000C4B1B684FF0FF31184604F0B1FC034611
:100E5000012BF5D100F014F800F0BEFB064B18682A
:100E600000230022002104F021FAE9E7E800002035
:100E700030010020180200201402002000000000B1
:100E800090B585B002AFC64B1B791846642300931A
:100E900000234022002100F0CDFA03461C46C04B3F
:100EA0005B7918466423009300234022002100F060
:100EB000C1FA03461946204600F050FA7860B84B54
:100EC0005B793F2B0BD8B64B1B79002B07D1002346
:100ED0007B6001220121B34801F0CCFC0AE0B04B59
:100EE0005B79402B06D100237B6001220121AD48B4
:100EF00001F0C0FCAA4B5B79142B05D9012201211A
:100F0000A84801F0B7FC04E000220121A54801F047
:100F1000B1FC00F039FAA44B1B78052B00F250818C
:100F200001A252F823F000BF410F0008B50F0008DE
:100F3000C90F00083D100008B11000082511000875
:100F4000012000F0A1F97868FFF78CFA4FF0000259
:100F5000964BFFF72BFC02460B46104619468EA314
:100F6000D3E90023FFF7F8FA02460B46104619466C
:100F7000FFF704FD0346DAB28D4B1A707868FFF76D
:100F800071FA4FF00002894BFFF710FC02460B4646
:100F90001046194680A3D3E90023FFF7DDFA024685
:100FA0000B4610461946FFF7E9FC0346DAB2814BBF
:100FB0001A7006E1002000F067F97D4B00221A70DC
:100FC0007C4B00221A70FCE0002000F05DF978688C
:100FD000FFF748FA4FF00002744BFFF7E7FB0246B9
:100FE0000B46104619464FF00002734BFFF7B4FA58
:100FF00002460B4610461946FFF7C0FC0346DAB21C
:101000006B4B1A707868FFF72DFA4FF00002674BB0
:10101000FFF7CCFB02460B46104619464FF0000284
:10102000654BFFF799FA02460B4610461946FFF743
:10103000A5FC0346DAB25F4B1A70C2E0002000F054
:1010400023F97868FFF70EFA4FF00002574BFFF7CD
:10105000ADFB02460B46104619464FF00002574BB7
:10106000FFF77AFA02460B4610461946FFF786FC50
:101070000346DAB24E4B1A707868FFF7F3F94FF077
:1010800000024A4BFFF792FB02460B4610461946F8
:101090004FF00002494BFFF75FFA02460B4610463D
:1010A0001946FFF76BFC0346DAB2424B1A7088E030
:1010B000002000F0E9F87868FFF7D4F94FF000025B
:1010C0003A4BFFF773FB02460B461046194632A314
:1010D000D3E90023FFF740FA02460B4610461946B3
:1010E000FFF74CFC0346DAB2314B1A707868FFF711
:1010F000B9F94FF000022D4BFFF758FB02460B46A3
:101100001046194624A3D3E90023FFF725FA024627
:101110000B4610461946FFF731FC0346DAB2254B61
:101120001A704EE0002000F0AFF87868FFF79AF9E7
:101130004FF000021D4BFFF739FB02460B461046ED
:1011400019464FF00002194BFFF706FA02460B460C
:1011500010461946FFF712FC0346DAB2144B1A7018
:101160007868FFF77FF94FF00002104BFFF71EFB86
:1011700002460B46104619464FF000020B4BFFF794
:10118000EBF902460B4610461946FFF7F7FB0346FC
:10119000DAB2084B1A7014E00000000000C05240A0
:1011A00080000020000402400000002000005940A0
:1011B000E0000020E100002000003940000049402C
:1011C00000BF00F039FA2A4B1B781846FFF75AF98E
:1011D0004FF00002274BFFF7E9FA02460B46104694
:1011E000194621A3D3E90023FFF7B6F902460B46BF
:1011F00010461946FFF7C2FB03461F4A5360002200
:101200001D491E4802F0DEFB1D4B1B781846FFF7F8
:1012100039F94FF00002174BFFF7C8FA02460B46A8
:101220001046194610A3D3E90023FFF795F90246AB
:101230000B4610461946FFF7A1FB03460E4A136200
:10124000042210490D4802F0BDFB00210B4802F0BA
:10125000E5F80421094802F0E1F800BF0C37BD466B
:1012600090BD00BFAFF3008000000000E0FFEF4042
:10127000E0000020000059408C000020E800002021
:10128000E1000020A800002080B582B000AF034636
:10129000FB71FB791A464FF40041074801F0EAFA66
:1012A000FB791A464FF48041034801F0E3FA00BF8E
:1012B0000837BD4680BD00BF0004024080B582B043
:1012C00000AF0023FB710023FB7129E0FA791F496D
:1012D0001346DB009B1A9B000B4460221A60FA79CC
:1012E0001A491346DB009B1A9B000B44043300226F
:1012F0001A60FA7915491346DB009B1A9B000B44D0
:10130000083300221A60FA7910491346DB009B1A51
:101310009B000B44103300221A60FB790133FB71F0
:10132000FB79022BD2D900220849094802F04AFB76
:1013300004220849064802F045FB082206490448F1
:1013400002F040FB00BF0837BD4680BD8C00002086
:10135000E8000020A8000020C400002080B483B072
:1013600000AF786039607A683B689A4203D97A683E
:101370003B68D31A02E03A687B68D31A18460C37E8
:10138000BD465DF8047B704780B483B000AF254B49
:101390009B7903F00103FB71FB79012B15D1224BE3
:1013A0001B78FA799A420CD0204B1B780133DAB2C1
:1013B0001E4B1A701D4B1B78052B02D91B4B0522A7
:1013C0001A70194AFB79137002E0174B00221A7049
:1013D000144B9B795B10DBB203F00103BB71BB794B
:1013E000012B15D1124B1B78BA799A420CD00F4BB6
:1013F0001B78013BDAB20D4B1A700C4B1B78052B96
:1014000002D90A4B00221A70094ABB79137002E014
:10141000074B00221A7000BF0C37BD465DF8047BF5
:10142000704700BF80000020E20000200000002084
:10143000E300002080B487B000AFF860B9607A6044
:101440003B60FA68BB689A4202DABB68FB6005E061
:10145000FA687B689A4201DD7B68FB60FA68BB68CA
:10146000D31A396A3A688A1A03FB02F27968BB68B0
:10147000CB1A92FBF3F33A6813447B617B691846FD
:101480001C37BD465DF8047B7047000080B586B010
:1014900002AF4FF47A73BB6004F07EFF7860464B76
:1014A000DB781846454B1B6803F15002444B1B6820
:1014B00000931346FF220021FFF7BCFF3860414B29
:1014C0005B6A1BB203F5FA73FB60FA683B689A42E9
:1014D0002DDA20E001224FF400513B4801F0CAF917
:1014E0003A4B49F64042DA6308223949394802F05A
:1014F00069FA0821374801F091FF324B5B6A1BB251
:1015000003F5FA73FB6004F047FF02467B68D31AC9
:10151000BA689A423DD33B68053BFA689A423BDA87
:10152000264B1B681433FA689A42D3DD34E0FA681C
:101530003B689A4230DD20E000224FF400512248FF
:1015400001F098F9214B49F64042DA63082220491C
:10155000204802F037FA08211E4801F05FFF194BBE
:101560005B6A1BB203F5FA73FB6004F015FF0246D9
:101570007B68D31ABA689A420DD33B680533FA6880
:101580009A4209DD0E4B1B681D33FA689A42D3DC80
:1015900002E000BF00E000BF0C4B0022DA6308222B
:1015A0000B490C4802F00EFA08210A4801F036FFF8
:1015B00000BF1037BD4680BD8000002024020020FF
:1015C0002002002000040040000402408C000020A3
:1015D000C4000020E800002080B500AF114BDB788C
:1015E000812B03D80F4BDB787C2B18D80D4BDA7886
:1015F0000D4B1B789A4206D0FFF748FF094BDA786B
:10160000094B1A700BE0094B0022DA6308220849E3
:10161000084802F0D7F90821064801F0FFFE00BF94
:1016200080BD00BF80000020E40000208C0000206E
:10163000C4000020E800002080B500AF2C4B9B794F
:1016400003F00803002B0CD001224FF4004129487D
:1016500001F010F900224FF48041264801F00AF908
:1016600011E0234B9B7903F02003002B0BD00022C9
:101670004FF400411F4801F0FDF801224FF4804172
:101680001C4801F0F7F81A4B9B7903F01003002B6C
:1016900018D0194B1B78002B08D1012204211548C2
:1016A00001F0E8F8144B01221A700BE0124B1B7882
:1016B000012B07D1002204210E4801F0DBF80E4B6C
:1016C00000221A700A4B9B7903F00403002B06D00A
:1016D00001224FF48061074801F0CCF805E00022B8
:1016E0004FF48061034801F0C5F800BF80BD00BF22
:1016F0008000002000040240E500002080B500AF1B
:1017000000F0ECFD00F060F800F002FA00F0BCF828
:1017100000F0AAF900F054F900F0D0F900F07CFADA
:1017200003F0A8F9194A0121012003F09AFA0346AF
:10173000174A1360174A0021012003F092FA03466A
:10174000154A1360154A0021012003F08AFA034666
:10175000134A1360134A0021134803F0D5F90346D6
:10176000124A1360124A0021124803F0CDF90346D1
:10177000114A1360114A0021114803F0C5F90346CC
:10178000104A136003F09AF900BFFDE71C800008BF
:10179000140200202C800008180200203C80000861
:1017A0001C020020B07F0008351E0008080200203F
:1017B000D47F0008310D00080C020020F87F0008DB
:1017C000190E00081002002080B594B000AF07F198
:1017D000200330220021184606F0B6FA07F10C0368
:1017E00000221A605A609A60DA601A610023BB60B6
:1017F000234B1B6C224A43F080531364204B1B6C19
:1018000003F08053BB60BB6800237B601D4B1B68EB
:1018100023F440431B4A43F400431360194B1B68F5
:1018200003F440437B607B6802233B620123FB623D
:1018300010233B630023BB6307F12003184601F02C
:1018400057F80346002B01D000F00BFB0F23FB6081
:1018500000233B6100237B614FF48053BB61002375
:10186000FB6107F10C030021184601F0B9FA0346A9
:10187000002B01D000F0F5FA00BF5037BD4680BD07
:10188000003802400070004080B592B000AF07F110
:10189000400300221A605A6007F1240300221A60F4
:1018A0005A609A60DA601A615A619A613B1D20227F
:1018B0000021184606F048FA3F4B404A1A603E4B5A
:1018C00001225A603C4B00229A603B4B4FF6FF725C
:1018D000DA60394B00221A61374B00225A61364BCD
:1018E00000229A61344801F049FD0346002B01D0E3
:1018F00000F0B7FA00233B6400237B6407F1400348
:1019000019462D4802F086FB0346002B01D000F05B
:10191000A8FA60237B620023BB620023FB620023E2
:101920003B6300237B630023BB630023FB6307F15E
:10193000240300221946204802F044F80346002BF5
:1019400001D000F08EFA07F12403042219461A4848
:1019500002F038F80346002B01D000F082FA07F1BC
:10196000240308221946144802F02CF80346002BE1
:1019700001D000F076FA00237B600023BB600023D7
:10198000FB6000233B6100237B614FF40053BB618C
:1019900000233B623B1D1946074802F0A9FB0346A2
:1019A000002B01D000F05DFA034800F0F7FA00BF09
:1019B0004837BD4680BD00BFE80000200000014060
:1019C00080B58CB000AF07F10C032422002118462B
:1019D00006F0BAF93B1D00221A605A60204B214ADA
:1019E0001A601F4B00225A601D4B00229A601C4B4C
:1019F0004FF6FF72DA601A4B00221A61184B8022F0
:101A00009A610323FB6000233B6101237B61002378
:101A1000BB610023FB6100233B6201237B62002347
:101A2000BB620A23FB6207F10C0319460C4801F064
:101A3000A5FD0346002B01D000F013FA00237B60C4
:101A40000023BB603B1D1946054802F0E3FA03463C
:101A5000002B01D000F005FA00BF3037BD4680BD35
:101A6000300100200004004080B500AF114B124A45
:101A70001A60104B4FF416525A600E4B00229A60B7
:101A80000C4B0022DA600B4B00221A61094B0C222E
:101A90005A61084B00229A61064B0022DA61054820
:101AA00002F08CFB0346002B01D000F0DAF900BFF6
:101AB00080BD00BF780100200044004080B500AF29
:101AC000114B124A1A60104B4FF416525A600E4BCB
:101AD00000229A600C4B0022DA600B4B00221A6144
:101AE000094B0C225A61084B00229A61064B0022D6
:101AF000DA61054802F062FB0346002B01D000F0DA
:101B0000B0F900BF80BD00BFC0010020001401403B
:101B100080B588B000AF07F10C0300221A605A604C
:101B20009A60DA601A610023BB60394B1B6B384A3C
:101B300043F001031363364B1B6B03F00103BB60DF
:101B4000BB6800237B60324B1B6B314A43F00203BE
:101B500013632F4B1B6B03F002037B607B68002237
:101B60004FF460412B4800F085FE0223FB604FF4E8
:101B700088133B6100237B6107F10C03194625485C
:101B800000F0F4FC4FF46043FB6001233B61002351
:101B90007B610023BB6107F10C0319461D4800F06F
:101BA000E5FC00220521072000F0B6FC072000F02C
:101BB000CFFC0123FB6001233B6100237B610023F9
:101BC000BB6107F10C031946124800F0CFFC042357
:101BD000FB6001233B6100237B610023BB6107F1B4
:101BE0000C0319460B4800F0C1FC4FF48063FB6006
:101BF00001233B6100237B610023BB6107F10C03E0
:101C00001946044800F0B2FC00BF2037BD4680BD35
:101C1000003802400004024080B58CB000AF0023C1
:101C2000FB6200237B62002387F82B303C217B483A
:101C300001F04AFD60237B600023BB600023FB6052
:101C400000237B613B1D08221946754801F0BAFE4E
:101C50003AE0744B5B6A1BB203F5FA73FB62FB6AF2
:101C60007B6200224FF400516F4800F003FE48F6FB
:101C7000B803BB603B1D08221946694801F0A2FE6B
:101C80000821674801F0CAFB664B5B6A1BB203F58B
:101C9000FA73FB62FA6A7B6A9A4209D07B6A013363
:101CA000FA6A9A4204D07B6A013BFA6A9A4205D1E9
:101CB00097F82B30013387F82B3002E0002387F8A8
:101CC0002B30C82000F04CFB97F82B30032BC0D9E9
:101CD0000023BB603B1D08221946514801F072FEEB
:101CE00008214F4801F09AFB504AFB6A13604FF4F9
:101CF000FA7000F035FB002387F82B303AE0494BAF
:101D00005B6A1BB203F5FA73FB62FB6A7B6201221A
:101D10004FF40051444800F0ADFD48F6B803BB60F5
:101D20003B1D082219463E4801F04CFE08213C4864
:101D300001F074FB3B4B5B6A1BB203F5FA73FB6269
:101D4000FA6A7B6A9A4209D07B6A0133FA6A9A423C
:101D500004D07B6A013BFA6A9A4205D197F82B308E
:101D6000013387F82B3002E0002387F82B30C8209E
:101D700000F0F6FA97F82B30032BC0D90023BB6094
:101D80003B1D08221946264801F01CFE0821244864
:101D900001F044FB264AFB6A13604FF4FA7000F02E
:101DA000DFFA234B1A68214B1B681344DA0F1344E4
:101DB0005B103B621EE01B4B5B6A1BB203F5FA73C0
:101DC000FB6200224FF40051174800F053FD49F622
:101DD0004043BB603B1D08221946114801F0F2FD4B
:101DE00008210F4801F01AFB0E4B5B6A1BB203F58A
:101DF000FA73FB62FA6A3B6A9A42DCDA0023BB6040
:101E00003B1D08221946064801F0DCFD0821044864
:101E100001F004FB00BF3037BD4680BD300100201B
:101E2000E8000020000400400004024020020020DE
:101E30002402002080B582B000AF7860012002F05B
:101E4000F5FEFBE780B582B000AF78607B681B6869
:101E5000B3F1804F01D100F063FA00BF0837BD46EF
:101E600080BD80B400AF72B600BF00BFFDE70000C8
:101E700080B582B000AF00237B60124B5B6C114ACF
:101E800043F4804353640F4B5B6C03F480437B60EB
:101E90007B6800233B600B4B1B6C0A4A43F080536A
:101EA0001364084B1B6C03F080533B603B680022BB
:101EB0000F216FF0010000F02FFB00BF0837BD4677
:101EC00080BD00BF0038024080B485B000AF7860AC
:101ED0007B681B680B4A93420DD10023FB600A4BC1
:101EE0005B6C094A43F001035364074B5B6C03F0DE
:101EF0000103FB60FB6800BF1437BD465DF8047B3F
:101F0000704700BF000001400038024080B58AB031
:101F100000AF786007F1140300221A605A609A60DB
:101F2000DA601A617B681B68194A93422BD100233F
:101F30003B61184B1B6C174A43F002031364154BAB
:101F40001B6C03F002033B613B690023FB60114BF8
:101F50001B6B104A43F0010313630E4B1B6B03F022
:101F60000103FB60FB68C0237B610223BB6100238C
:101F7000FB6100233B6202237B6207F114031946D5
:101F8000054800F0F3FA00BF2837BD4680BD00BF0A
:101F900000040040003802400000024080B588B0D4
:101FA00000AF786007F10C0300221A605A609A6053
:101FB000DA601A617B681B68124A93421ED10023C3
:101FC000BB60114B1B6B104A43F0010313630E4BB4
:101FD0001B6B03F00103BB60BB684FF4E063FB6065
:101FE00002233B6100237B610023BB610123FB6172
:101FF00007F10C031946054800F0B8FA00BF203776
:10200000BD4680BD00000140003802400000024093
:1020100080B58CB000AF786007F11C0300221A6015
:102020005A609A60DA601A617B681B68324A934290
:102030002CD10023BB61314B1B6C304A43F400337D
:1020400013642E4B1B6C03F40033BB61BB6900238C
:102050007B612A4B1B6B294A43F001031363274B17
:102060001B6B03F001037B617B690C23FB61022383
:102070003B6200237B620323BB620723FB6207F101
:102080001C0319461E4800F071FA31E07B681B689A
:102090001C4A93422CD100233B61184B5B6C174ABE
:1020A00043F020035364154B5B6C03F020033B614A
:1020B0003B690023FB60114B1B6B104A43F001038B
:1020C00013630E4B1B6B03F00103FB60FB684FF4C3
:1020D000C053FB6102233B6200237B620323BB628C
:1020E0000823FB6207F11C031946054800F03EFA7D
:1020F00000BF3037BD4680BD00440040003802407C
:10210000000002400014014080B58EB000AF78603E
:102110000023FB620023BB620023FB60344B1B6C7B
:10212000334A43F001031364314B1B6C03F001038A
:10213000FB60FB6807F1100207F114031146184613
:1021400001F02EF83B6AFB62FB6A002B03D100F022
:10215000FFFF786304E000F0FBFF03465B007B6356
:102160007B6B244AA2FB03239B0C013BBB62224BEB
:102170004FF080421A60204B40F2E732DA601E4A8C
:10218000BB6A53601C4B00221A611B4B00229A60F1
:10219000194B00229A61184801F034F8034687F879
:1021A000333097F83330002B1BD1134801F084F8FB
:1021B000034687F8333097F83330002B11D11C20B9
:1021C00000F0C6F97B680F2B08D8002279681C2024
:1021D00000F0A2F9094A7B68136002E0012387F846
:1021E000333097F8333018463837BD4680BD00BFCE
:1021F0000038024083DE1B43280200200800002034
:1022000080B400AF00BFFDE780B400AF00BFFDE7C2
:1022100080B400AF00BFFDE780B400AF00BFFDE7B2
:1022200080B400AF00BFFDE780B400AF00BFBD4683
:102230005DF8047B7047000080B500AF034B0122BE
:102240001A70022000F030FB00BF80BD7002002039
:1022500080B500AF024801F0C5FA00BF80BD00BFE5
:102260002802002080B400AF064BD3F88830054A1E
:1022700043F47003C2F8883000BFBD465DF8047BAC
:10228000704700BF00ED00E0DFF834D0FFF7EAFF51
:102290000C480D490D4A002302E0D458C4500433C1
:1022A000C4188C42F9D30A4A0A4C002301E0136097
:1022B0000432A242FBD305F0A5FDFFF71FFA7047D9
:1022C000000001200000002064000020748000084D
:1022D00064000020A04D0020FEE7000080B500AFA4
:1022E0000E4B1B680D4A43F4007313600B4B1B68C5
:1022F0000A4A43F480631360084B1B68074A43F49F
:1023000080731360032000F0FCF80F20FFF7FCFE41
:10231000FFF7AEFD0023184680BD00BF003C024021
:1023200080B400AF064B1B781A46064B1B6813445B
:10233000044A136000BFBD465DF8047B704700BFD0
:102340000C0000207402002080B400AF034B1B6817
:102350001846BD465DF8047B704700BF740200203C
:1023600080B584B000AF7860FFF7EEFFB8607B689F
:10237000FB60FB68B3F1FF3F05D00A4B1B781A46A0
:10238000FB681344FB6000BFFFF7DEFF0246BB683B
:10239000D31AFA689A42F7D800BF00BF1037BD467B
:1023A00080BD00BF0C00002080B485B000AF786015
:1023B0007B6803F00703FB600C4BDB68BB60BA680B
:1023C0004FF6FF031340BB60FB681A02BB68134360
:1023D00043F0BF6343F40033BB60044ABB68D3607F
:1023E00000BF1437BD465DF8047B704700ED00E088
:1023F00080B400AF044BDB681B0A03F007031846E8
:10240000BD465DF8047B704700ED00E080B483B00A
:1024100000AF0346FB7197F90730002B0BDBFB790C
:1024200003F01F02074997F907305B09012000FA02
:1024300002F241F8232000BF0C37BD465DF8047B53
:10244000704700BF00E100E080B483B000AF0346F6
:102450003960FB7197F90730002B0ADB3B68DAB271
:102460000C4997F907301201D2B20B4483F80023CC
:102470000AE03B68DAB20849FB7903F00F03043B3A
:102480001201D2B20B441A7600BF0C37BD465DF87C
:10249000047B704700E100E000ED00E080B489B00B
:1024A00000AFF860B9607A60FB6803F00703FB6176
:1024B000FB69C3F10703042B28BF0423BB61FB693D
:1024C0000433062B02D9FB69033B00E000237B6148
:1024D0004FF0FF32BB6902FA03F3DA43BB681A40DC
:1024E0007B699A404FF0FF317B6901FA03F3D943CE
:1024F0007B680B40134318462437BD465DF8047BC8
:10250000704780B582B000AF78607868FFF74CFF05
:1025100000BF0837BD4680BD80B586B000AF03461A
:10252000B9607A60FB7300237B61FFF761FF78611C
:102530007A68B9687869FFF7B1FF024697F90F30FA
:1025400011461846FFF780FF00BF1837BD4680BD13
:1025500080B582B000AF0346FB7197F9073018468B
:10256000FFF754FF00BF0837BD4680BD80B489B077
:1025700000AF7860396000237B6100233B6100235A
:10258000BB610023FB6159E10122FB6902FA03F3FD
:102590007B613B681B687A6913403B613A697B69E0
:1025A0009A4240F048813B685B6803F00303012BCB
:1025B00005D03B685B6803F00303022B30D17B68D6
:1025C0009B68BB61FB695B00032202FA03F3DB43F8
:1025D000BA691340BB613B68DA68FB695B0002FAC9
:1025E00003F3BA691343BB617B68BA699A607B687D
:1025F0005B68BB610122FB6902FA03F3DB43BA6942
:102600001340BB613B685B681B0903F00102FB6977
:1026100002FA03F3BA691343BB617B68BA695A6073
:102620003B685B6803F00303032B17D07B68DB6810
:10263000BB61FB695B00032202FA03F3DB43BA6967
:102640001340BB613B689A68FB695B0002FA03F3C5
:10265000BA691343BB617B68BA69DA603B685B683F
:1026600003F00303022B23D1FB69DA087B680832ED
:1026700053F82230BB61FB6903F007039B000F2274
:1026800002FA03F3DB43BA691340BB613B681A6982
:10269000FB6903F007039B0002FA03F3BA691343D3
:1026A000BB61FB69DA087B680832B96943F822101C
:1026B0007B681B68BB61FB695B00032202FA03F3C2
:1026C000DB43BA691340BB613B685B6803F00302FC
:1026D000FB695B0002FA03F3BA691343BB617B68D1
:1026E000BA691A603B685B6803F44033002B00F062
:1026F000A2800023FB60574B5B6C564A43F4804337
:102700005364544B5B6C03F48043FB60FB68524A98
:10271000FB699B08023352F82330BB61FB6903F06D
:1027200003039B000F2202FA03F3DB43BA69134051
:10273000BB617B68494A934219D07B68484A9342FF
:1027400013D07B68474A93420DD07B68464A934238
:1027500007D07B68454A934201D1042308E0072350
:1027600006E0032304E0022302E0012300E000234B
:10277000FA6902F0030292009340BA691343BB6105
:102780003549FB699B080233BA6941F82320384B6D
:102790009B68BB613B69DB43BA691340BB613B6823
:1027A0005B6803F48013002B03D0BA693B691343C1
:1027B000BB612F4ABB6993602D4BDB68BB613B69F2
:1027C000DB43BA691340BB613B685B6803F40013E9
:1027D000002B03D0BA693B691343BB61244ABB6930
:1027E000D360234B5B68BB613B69DB43BA69134031
:1027F000BB613B685B6803F40033002B03D0BA690C
:102800003B691343BB611A4ABB695360184B1B6891
:10281000BB613B69DB43BA691340BB613B685B68E2
:1028200003F48033002B03D0BA693B691343BB61C7
:102830000F4ABB691360FB690133FB61FB690F2B16
:102840007FF6A2AE00BF00BF2437BD465DF8047B13
:10285000704700BF003802400038014000000240CD
:102860000004024000080240000C02400010024038
:10287000003C014080B483B000AF78600B467B80A1
:1028800013467B707B78002B03D07A887B689A6133
:1028900003E07B881A047B689A6100BF0C37BD4651
:1028A0005DF8047B7047000080B582B000AF03463E
:1028B000FB80084B5A69FB881340002B06D0054A61
:1028C000FB885361FB88184600F006F800BF083704
:1028D000BD4680BD003C014080B483B000AF0346DC
:1028E000FB8000BF0C37BD465DF8047B70470000DD
:1028F00080B586B000AF78607B68002B01D10123E2
:1029000067E27B681B6803F00103002B75D0884BDE
:102910009B6803F00C03042B0CD0854B9B6803F0E1
:102920000C03082B12D1824B5B6803F48003B3F5D0
:10293000800F0BD17E4B1B6803F40033002B5BD060
:102940007B685B68002B57D1012342E27B685B68A0
:10295000B3F5803F06D1764B1B68754A43F480334C
:1029600013601DE07B685B68B3F5A02F0CD1704B42
:102970001B686F4A43F4802313606D4B1B686C4ADD
:1029800043F4803313600BE0694B1B68684A23F4FF
:1029900080331360664B1B68654A23F48023136001
:1029A0007B685B68002B13D0FFF7CEFC386108E032
:1029B000FFF7CAFC02463B69D31A642B01D90323F3
:1029C00007E25B4B1B6803F40033002BF0D014E0EC
:1029D000FFF7BAFC386108E0FFF7B6FC02463B6936
:1029E000D31A642B01D90323F3E1514B1B6803F481
:1029F0000033002BF0D100E000BF7B681B6803F0C0
:102A00000203002B63D04A4B9B6803F00C03002B9E
:102A10000BD0474B9B6803F00C03082B1CD1444B95
:102A20005B6803F48003002B16D1414B1B6803F055
:102A30000203002B05D07B68DB68012B01D001234A
:102A4000C7E13B4B1B6823F0F8027B681B69DB0086
:102A5000374913430B603AE07B68DB68002B20D0DA
:102A6000344B01221A60FFF76FFC386108E0FFF772
:102A70006BFC02463B69D31A022B01D90323A8E160
:102A80002B4B1B6803F00203002BF0D0284B1B6874
:102A900023F0F8027B681B69DB00254913430B60B8
:102AA00015E0244B00221A60FFF74EFC386108E065
:102AB000FFF74AFC02463B69D31A022B01D90323D4
:102AC00087E11B4B1B6803F00203002BF0D17B68EE
:102AD0001B6803F00803002B36D07B685B69002B72
:102AE00016D0154B01221A60FFF72EFC386108E062
:102AF000FFF72AFC02463B69D31A022B01D90323B4
:102B000067E10B4B5B6F03F00203002BF0D01BE07F
:102B1000094B00221A60FFF717FC38610EE0FFF73F
:102B200013FC02463B69D31A022B07D9032350E159
:102B30000038024000004742800E4742884B5B6FDE
:102B400003F00203002BEAD17B681B6803F0040347
:102B5000002B00F097800023FB75814B1B6C03F06A
:102B60008053002B0FD10023BB607D4B1B6C7C4A34
:102B700043F0805313647A4B1B6C03F08053BB60AB
:102B8000BB680123FB75774B1B6803F48073002B34
:102B900018D1744B1B68734A43F480731360FFF7BA
:102BA000D3FB386108E0FFF7CFFB02463B69D31A3D
:102BB000022B01D903230CE16A4B1B6803F48073D9
:102BC000002BF0D07B689B68012B06D1644B1B6FF8
:102BD000634A43F0010313671CE07B689B68052B85
:102BE0000CD15F4B1B6F5E4A43F0040313675C4BD1
:102BF0001B6F5B4A43F0010313670BE0584B1B6FDD
:102C0000574A23F001031367554B1B6F544A23F0B7
:102C1000040313677B689B68002B15D0FFF794FBB8
:102C200038610AE0FFF790FB02463B69D31A41F294
:102C30008832934201D90323CBE0494B1B6F03F049
:102C40000203002BEED014E0FFF77EFB38610AE0B0
:102C5000FFF77AFB02463B69D31A41F2883293426E
:102C600001D90323B5E03E4B1B6F03F00203002B99
:102C7000EED1FB7D012B05D1394B1B6C384A23F07B
:102C8000805313647B689B69002B00F0A180344B58
:102C90009B6803F00C03082B5CD07B689B69022BBC
:102CA00041D1314B00221A60FFF74EFB386108E03A
:102CB000FFF74AFB02463B69D31A022B01D90323D3
:102CC00087E0274B1B6803F00073002BF0D17B6873
:102CD000DA697B681B6A1A437B685B6A9B011A434B
:102CE0007B689B6A5B08013B1B041A437B68DB6AB9
:102CF0001B061B4913434B601B4B01221A60FFF755
:102D000023FB386108E0FFF71FFB02463B69D31A3B
:102D1000022B01D903235CE0114B1B6803F0007305
:102D2000002BF0D054E0104B00221A60FFF70CFB90
:102D3000386108E0FFF708FB02463B69D31A022B13
:102D400001D9032345E0064B1B6803F00073002BF9
:102D5000F0D13DE07B689B69012B07D1012338E06E
:102D60000038024000700040600047421B4B5B6827
:102D7000FB607B689B69012B28D0FB6803F4800211
:102D80007B68DB699A4221D1FB6803F03F027B68D4
:102D90001B6A9A421AD1FA6847F6C07313407A68E0
:102DA000526A9201934211D1FB6803F440327B686E
:102DB0009B6A5B08013B1B049A4207D1FB6803F046
:102DC00070627B68DB6A1B069A4201D0012300E037
:102DD000002318461837BD4680BD00BF00380240AA
:102DE00080B584B000AF786039607B68002B01D17A
:102DF0000123CCE0684B1B6803F007033A689A4252
:102E00000CD9654B3A68D2B21A70634B1B6803F059
:102E100007033A689A4201D00123B8E07B681B6837
:102E200003F00203002B20D07B681B6803F004032F
:102E3000002B05D0594B9B68584A43F4E0539360EC
:102E40007B681B6803F00803002B05D0534B9B687D
:102E5000524A43F460439360504B9B6823F0F00266
:102E60007B689B684D4913438B607B681B6803F04C
:102E70000103002B44D07B685B68012B07D1474BD3
:102E80001B6803F40033002B19D101237FE07B681A
:102E90005B68022B03D07B685B68032B07D13F4B39
:102EA0001B6803F00073002B09D101236FE03B4B3B
:102EB0001B6803F00203002B01D1012367E0374BAD
:102EC0009B6823F003027B685B68344913438B6083
:102ED000FFF73AFAF8600AE0FFF736FA0246FB68B5
:102EE000D31A41F28832934201D903234FE02B4B8E
:102EF0009B6803F00C027B685B689B009A42EBD1F5
:102F0000254B1B6803F007033A689A420CD2224B08
:102F10003A68D2B21A70204B1B6803F007033A6874
:102F20009A4201D0012332E07B681B6803F004035E
:102F3000002B08D0194B9B6823F4E0527B68DB68B8
:102F4000164913438B607B681B6803F00803002B52
:102F500009D0124B9B6823F460427B681B69DB003D
:102F60000E4913438B6000F021F802460B4B9B681F
:102F70001B0903F00F030A49CB5C22FA03F3094A49
:102F80001360094B1B681846FFF7BEF8002318466C
:102F90001037BD4680BD00BF003C024000380240F3
:102FA0004C80000804000020080000202DE9B04FEC
:102FB00090B000AF00237B630023FB6300233B63DF
:102FC0000023BB63594B9B6803F00C03082B0DD007
:102FD000082B00F2A180002B02D0042B03D09BE031
:102FE000534BBB639BE0534BBB6398E04F4B5B6819
:102FF00003F03F037B634D4B5B6803F48003002BBE
:1030000028D04A4B5B689B0900223B627A623B6A8C
:10301000C3F308000021474B03FB01F2002300FB30
:1030200003F31344434AA0FB0212FA620A46BA624F
:10303000FA6A1344FB627B6B0022BB61FA61D7E939
:103040000623D7E90A01FDF7B9FC02460B461346F1
:10305000FB6353E0354B5B689B0900223B617A615F
:103060003B69C3F3080A4FF0000B52465B464FF032
:1030700000004FF00001590141EAD26150010246BF
:103080000B46B2EB0A0863EB0B094FF000024FF05E
:1030900000034FEA891343EA98634FEA8812B2EBC0
:1030A000080463EB09054FF000024FF00003EB004A
:1030B00043EA5473E20014461D4614EB0A033B60D6
:1030C00045EB0B037B604FF000024FF00003D7E9A4
:1030D000004529468B02214643EA915321468A0244
:1030E000104619467B6B0022BB60FA60D7E90223C9
:1030F000FDF764FC02460B461346FB630B4B5B6813
:103100001B0C03F0030301335B003B63FA6B3B6B67
:10311000B2FBF3F3BB6302E0054BBB6300BFBB6BC9
:1031200018464037BD46BDE8B08F00BF00380240AA
:103130000024F40040787D0180B400AF034B1B688D
:103140001846BD465DF8047B704700BF04000020B0
:1031500080B500AFFFF7F0FF0246054B9B689B0A66
:1031600003F007030349CB5C22FA03F3184680BD42
:10317000003802405C80000880B500AFFFF7DCFF3C
:103180000246054B9B685B0B03F007030349CB5CCE
:1031900022FA03F3184680BD003802405C80000824
:1031A00080B483B000AF786039607B680F221A600A
:1031B000124B9B6803F003027B685A600F4B9B68BD
:1031C00003F0F0027B689A600C4B9B6803F4E052BA
:1031D0007B68DA60094B9B68DB0803F4E0527B688C
:1031E0001A61074B1B6803F007023B681A6000BFB7
:1031F0000C37BD465DF8047B704700BF00380240C5
:10320000003C024080B582B000AF78607B68002B44
:1032100001D1012341E07B6893F83D30DBB2002B04
:1032200006D17B68002283F83C20786800F039F8EA
:103230007B68022283F83D207B681A687B68043330
:103240001946104600F0A8FC7B68012283F846204E
:103250007B68012283F83E207B68012283F83F20AF
:103260007B68012283F840207B68012283F841209B
:103270007B68012283F842207B68012283F8432087
:103280007B68012283F844207B68012283F8452073
:103290007B68012283F83D20002318460837BD468D
:1032A00080BD80B483B000AF786000BF0C37BD46EE
:1032B0005DF8047B7047000080B485B000AF786093
:1032C0007B6893F83D30DBB2012B01D0012344E051
:1032D0007B68022283F83D207B681B68DA687B6884
:1032E0001B6842F00102DA607B681B681E4A934249
:1032F00018D07B681B68B3F1804F13D07B681B68C4
:103300001A4A93420ED07B681B68194A934209D02F
:103310007B681B68174A934204D07B681B68164A77
:10332000934211D17B681B689B6803F00703FB6025
:10333000FB68062B10D07B681B681A687B681B68CB
:1033400042F001021A6007E07B681B681A687B681C
:103350001B6842F001021A60002318461437BD466C
:103360005DF8047B704700BF00000140000400408E
:1033700000080040000C00400040014080B582B0D1
:1033800000AF78607B68002B01D1012341E07B68AE
:1033900093F83D30DBB2002B06D17B68002283F826
:1033A0003C207868FEF790FD7B68022283F83D2080
:1033B0007B681A687B6804331946104600F0ECFB02
:1033C0007B68012283F846207B68012283F83E2037
:1033D0007B68012283F83F207B68012283F840202C
:1033E0007B68012283F841207B68012283F8422018
:1033F0007B68012283F843207B68012283F8442004
:103400007B68012283F845207B68012283F83D20F8
:10341000002318460837BD4680BD000080B584B043
:1034200000AF786039603B68002B09D17B6893F866
:103430003E30DBB2012B14BF01230023DBB222E0BC
:103440003B68042B09D17B6893F83F30DBB2012B3A
:1034500014BF01230023DBB215E03B68082B09D120
:103460007B6893F84030DBB2012B14BF01230023AB
:10347000DBB208E07B6893F84130DBB2012B14BF6C
:1034800001230023DBB2002B01D0012368E03B685D
:10349000002B04D17B68022283F83E2013E03B68B6
:1034A000042B04D17B68022283F83F200BE03B68A9
:1034B000082B04D17B68022283F8402003E07B685C
:1034C000022283F841207B681B6801223968184674
:1034D00000F07AFD7B681B68234A934207D17B6822
:1034E0001B685A6C7B681B6842F400425A647B6814
:1034F0001B681D4A934218D07B681B68B3F1804F4C
:1035000013D07B681B68194A93420ED07B681B68F6
:10351000174A934209D07B681B68164A934204D02D
:103520007B681B68144A934211D17B681B689B68B7
:1035300003F00703FB60FB68062B10D07B681B6859
:103540001A687B681B6842F001021A6007E07B681A
:103550001B681A687B681B6842F001021A6000232E
:1035600018461037BD4680BD0000014000040040F1
:1035700000080040000C00400040014080B586B0CB
:1035800000AF786039607B68002B01D1012397E0A0
:103590007B6893F83D30DBB2002B06D17B680022BC
:1035A00083F83C207868FEF7B1FC7B68022283F840
:1035B0003D207B681B689B687A68126823F480430F
:1035C00023F0070393607B681A687B68043319460D
:1035D000104600F0E1FA7B681B689B687B617B68A2
:1035E0001B689B693B617B681B681B6AFB603B68CF
:1035F0001B687A6913437B613B6923F4407323F0B2
:1036000003033B613B689A683B689B691B02134359
:103610003A6913433B613B6923F4406323F00C0395
:103620003B613B6923F4704323F0F0033B613B684B
:10363000DA683B68DB691B0213433A6913433B6159
:103640003B681B691A013B681B6A1B0313433A69F9
:1036500013433B61FB6823F02203FB60FB6823F00C
:103660008803FB603B685A683B685B691B01134336
:10367000FA681343FB607B681B687A699A607B6811
:103680001B683A699A617B681B68FA681A627B68F2
:10369000012283F846207B68012283F83E207B6864
:1036A000012283F83F207B68012283F842207B6857
:1036B000012283F843207B68012283F83D20002308
:1036C00018461837BD4680BD80B584B000AF78601D
:1036D00039607B6893F83E30FB737B6893F83F302A
:1036E000BB737B6893F842307B737B6893F84330FD
:1036F0003B733B68002B10D1FB7B012B02D17B7B02
:10370000012B01D0012369E07B68022283F83E206F
:103710007B68022283F8422031E03B68042B10D101
:10372000BB7B012B02D13B7B012B01D0012355E058
:103730007B68022283F83F207B68022283F84320C3
:103740001DE0FB7B012B08D1BB7B012B05D17B7BD3
:10375000012B02D13B7B012B01D001233EE07B6892
:10376000022283F83E207B68022283F83F207B6898
:10377000022283F842207B68022283F843203B68C0
:10378000002B03D03B68042B08D00FE07B681B683C
:1037900001220021184600F017FC16E07B681B6828
:1037A00001220421184600F00FFC0EE07B681B6824
:1037B00001220021184600F007FC7B681B680122EB
:1037C0000421184600F000FC00BF7B681B681A68E3
:1037D0007B681B6842F001021A600023184610370C
:1037E000BD4680BD80B584B000AF78607B681B6843
:1037F000DB68FB607B681B681B69BB60BB6803F010
:103800000203002B20D0FB6803F00203002B1BD027
:103810007B681B686FF002021A617B6801221A77CD
:103820007B681B689B6903F00303002B03D0786857
:1038300000F094F905E0786800F086F9786800F007
:1038400097F97B6800221A77BB6803F00403002B0A
:1038500020D0FB6803F00403002B1BD07B681B689F
:103860006FF004021A617B6802221A777B681B687A
:103870009B6903F44073002B03D0786800F06EF965
:1038800005E0786800F060F9786800F071F97B680D
:1038900000221A77BB6803F00803002B20D0FB68D6
:1038A00003F00803002B1BD07B681B686FF0080235
:1038B0001A617B6804221A777B681B68DB6903F056
:1038C0000303002B03D0786800F048F905E078681E
:1038D00000F03AF9786800F04BF97B6800221A771B
:1038E000BB6803F01003002B20D0FB6803F010032B
:1038F000002B1BD07B681B686FF010021A617B687D
:1039000008221A777B681B68DB6903F44073002B7D
:1039100003D0786800F022F905E0786800F014F927
:10392000786800F025F97B6800221A77BB6803F0FD
:103930000103002B0CD0FB6803F00103002B07D020
:103940007B681B686FF001021A617868FEF77AFAEB
:10395000BB6803F08003002B0CD0FB6803F08003EE
:10396000002B07D07B681B686FF080021A617868B3
:1039700000F01AFCBB6803F04003002B0CD0FB687E
:1039800003F04003002B07D07B681B686FF04002F8
:103990001A61786800F0F6F8BB6803F02003002B8A
:1039A0000CD0FB6803F02003002B07D07B681B685A
:1039B0006FF020021A61786800F0ECFB00BF10374E
:1039C000BD4680BD80B586B000AFF860B9607A6052
:1039D0000023FB75FB6893F83C30012B01D10223D7
:1039E000AEE0FB68012283F83C207B680C2B00F2E0
:1039F0009F8001A252F823F02D3A0008313B0008C5
:103A0000313B0008313B00086D3A0008313B0008AB
:103A1000313B0008313B0008AF3A0008313B000859
:103A2000313B0008313B0008EF3A0008FB681B6897
:103A3000B968184600F03CF9FB681B689A69FB6896
:103A40001B6842F008029A61FB681B689A69FB6870
:103A50001B6822F004029A61FB681B689969BB68C5
:103A60001A69FB681B680A439A6164E0FB681B687B
:103A7000B968184600F082F9FB681B689A69FB6810
:103A80001B6842F400629A61FB681B689A69FB68D4
:103A90001B6822F480629A61FB681B689969BB68A5
:103AA0001B691A02FB681B680A439A6143E0FB68C2
:103AB0001B68B968184600F0CDF9FB681B68DA6925
:103AC000FB681B6842F00802DA61FB681B68DA6970
:103AD000FB681B6822F00402DA61FB681B68D96985
:103AE000BB681A69FB681B680A43DA6123E0FB685C
:103AF0001B68B968184600F017FAFB681B68DA699A
:103B0000FB681B6842F40062DA61FB681B68DA69D3
:103B1000FB681B6822F48062DA61FB681B68D96964
:103B2000BB681B691A02FB681B680A43DA6102E082
:103B30000123FB7500BFFB68002283F83C20FB7D5E
:103B400018461837BD4680BD80B483B000AF78609A
:103B500000BF0C37BD465DF8047B704780B483B06E
:103B600000AF786000BF0C37BD465DF8047B70473E
:103B700080B483B000AF786000BF0C37BD465DF8FD
:103B8000047B704780B483B000AF786000BF0C370F
:103B9000BD465DF8047B704780B485B000AF7860A7
:103BA00039607B681B68FB607B683A4A93420FD0A0
:103BB0007B68B3F1804F0BD07B68374A934207D0C4
:103BC0007B68364A934203D07B68354A934208D1DA
:103BD000FB6823F07003FB603B685B68FA68134383
:103BE000FB607B682B4A93421BD07B68B3F1804F0C
:103BF00017D07B68284A934213D07B68274A9342A8
:103C00000FD07B68264A93420BD07B68254A9342AB
:103C100007D07B68244A934203D07B68234A9342AF
:103C200008D1FB6823F44073FB603B68DB68FA68EB
:103C30001343FB60FB6823F080023B685B6913431E
:103C4000FB607B68FA681A603B689A687B68DA6296
:103C50003B681A687B689A627B680E4A934203D17C
:103C60003B681A697B681A637B6801225A617B682A
:103C70001B6903F00103012B05D17B681B6923F04D
:103C800001027B681A6100BF1437BD465DF8047BF2
:103C9000704700BF000001400004004000080040E1
:103CA000000C004000400140004401400048014039
:103CB00080B487B000AF786039607B681B6A7B6135
:103CC0007B681B6A23F001027B681A627B685B6871
:103CD0003B617B689B69FB60FB6823F07003FB60C2
:103CE000FB6823F00303FB603B681B68FA6813431F
:103CF000FB607B6923F002037B613B689B687A6908
:103D000013437B617B681C4A93420CD17B6923F08F
:103D100008037B613B68DB687A6913437B617B69DD
:103D200023F004037B617B68134A934211D13B6902
:103D300023F480733B613B6923F400733B613B6870
:103D40005B693A6913433B613B689B693A6913437A
:103D50003B617B683A695A607B68FA689A613B68A4
:103D60005A687B685A637B687A691A6200BF1C379D
:103D7000BD465DF8047B70470000014080B487B009
:103D800000AF786039607B681B6A7B617B681B6A67
:103D900023F010027B681A627B685B683B617B687A
:103DA0009B69FB60FB6823F4E043FB60FB6823F442
:103DB0004073FB603B681B681B02FA681343FB609F
:103DC0007B6923F020037B613B689B681B017A6958
:103DD00013437B617B681E4A93420DD17B6923F0BC
:103DE00080037B613B68DB681B017A6913437B615D
:103DF0007B6923F040037B617B68154A934213D1B2
:103E00003B6923F480633B613B6923F400633B61BE
:103E10003B685B699B003A6913433B613B689B6964
:103E20009B003A6913433B617B683A695A607B683F
:103E3000FA689A613B685A687B689A637B687A691A
:103E40001A6200BF1C37BD465DF8047B704700BF97
:103E50000000014080B487B000AF786039607B68B3
:103E60001B6A7B617B681B6A23F480727B681A6221
:103E70007B685B683B617B68DB69FB60FB6823F008
:103E80007003FB60FB6823F00303FB603B681B6867
:103E9000FA681343FB607B6923F400737B613B6822
:103EA0009B681B027A6913437B617B681D4A9342BE
:103EB0000DD17B6923F400637B613B68DB681B02E7
:103EC0007A6913437B617B6923F480637B617B6840
:103ED000144A934213D13B6923F480533B613B69FD
:103EE00023F400533B613B685B691B013A69134350
:103EF0003B613B689B691B013A6913433B617B68EB
:103F00003A695A607B68FA68DA613B685A687B688C
:103F1000DA637B687A691A6200BF1C37BD465DF8B8
:103F2000047B70470000014080B487B000AF786028
:103F300039607B681B6A3B617B681B6A23F4805293
:103F40007B681A627B685B687B617B68DB69FB600E
:103F5000FB6823F4E043FB60FB6823F44073FB60E1
:103F60003B681B681B02FA681343FB603B6923F440
:103F700000533B613B689B681B033A6913433B61F9
:103F80007B68104A934209D17B6923F480437B61AB
:103F90003B685B699B017A6913437B617B687A6943
:103FA0005A607B68FA68DA613B685A687B681A6411
:103FB0007B683A691A6200BF1C37BD465DF8047B16
:103FC000704700BF0000014080B487B000AFF860C8
:103FD000B9607A60BB6803F01F03012202FA03F3A1
:103FE0007B61FB681A6A7B69DB431A40FB681A62D3
:103FF000FB681A6ABB6803F01F03796801FA03F3D0
:104000001A43FB681A6200BF1C37BD465DF8047B8B
:104010007047000080B485B000AF786039607B687D
:1040200093F83C30012B01D1022350E07B68012240
:1040300083F83C207B68022283F83D207B681B6864
:104040005B68FB607B681B689B68BB60FB6823F058
:104050007003FB603B681B68FA681343FB607B6876
:104060001B68FA685A607B681B681C4A934218D028
:104070007B681B68B3F1804F13D07B681B68184ABC
:1040800093420ED07B681B68164A934209D07B6826
:104090001B68154A934204D07B681B68134A9342FD
:1040A0000CD1BB6823F08003BB603B685B68BA68D7
:1040B0001343BB607B681B68BA689A607B68012207
:1040C00083F83D207B68002283F83C2000231846BB
:1040D0001437BD465DF8047B704700BF0000014007
:1040E0000004004000080040000C00400040014077
:1040F00080B485B000AF786039600023FB607B68D6
:1041000093F83C30012B01D102233DE07B68012272
:1041100083F83C20FB6823F0FF023B68DB68134315
:10412000FB60FB6823F440723B689B681343FB60B1
:10413000FB6823F480623B685B681343FB60FB68A9
:1041400023F400623B681B681343FB60FB6823F4A5
:1041500080523B681B691343FB60FB6823F40052E9
:104160003B685B691343FB60FB6823F480423B6858
:10417000DB691343FB607B681B68FA685A647B68E1
:10418000002283F83C20002318461437BD465DF812
:10419000047B704780B483B000AF786000BF0C37F9
:1041A000BD465DF8047B704780B483B000AF786093
:1041B00000BF0C37BD465DF8047B704780B582B008
:1041C00000AF78607B68002B01D1012342E07B685F
:1041D00093F84130DBB2002B06D17B68002283F8D4
:1041E00040207868FDF714FF7B68242283F8412083
:1041F0007B681B68DA687B681B6822F40052DA600F
:10420000786800F07FF97B681B681A697B681B6817
:1042100022F490421A617B681B685A697B681B68AC
:1042200022F02A025A617B681B68DA687B681B6887
:1042300042F40052DA607B6800225A647B682022D4
:1042400083F841207B68202283F842207B6800228B
:104250005A63002318460837BD4680BD80B58AB032
:1042600002AFF860B9603B601346FB8000237B61BE
:10427000FB6893F84230DBB2202B40F08180BB68B2
:10428000002B02D0FB88002B01D1012379E0FB68D1
:1042900000225A64FB68222283F84220FB68002235
:1042A0001A63FEF751F87861FB68FA889A85FB6813
:1042B000FA88DA85FB689B68B3F5805F08D1FB68F4
:1042C0001B69002B04D10023FB61BB68BB6103E0C9
:1042D000BB68FB610023BB6147E03B6800937B69DF
:1042E00000222021F86800F050F80346002B05D08A
:1042F000FB68202283F84220032342E0FB69002B65
:104300000CD1FB681B685B689BB2C3F308039AB2CD
:10431000BB691A80BB690233BB611FE0FB689B6805
:10432000B3F5805F07D0FB689B68002B0AD1FB6860
:104330001B69002B06D1FB681B685B68DAB2FB695E
:104340001A7008E0FB681B685B68DBB203F07F0350
:10435000DAB2FB691A70FB690133FB61FB68DB8D24
:104360009BB2013B9AB2FB68DA85FB68DB8D9BB29E
:10437000002BB2D1FB68202283F84220002300E00A
:10438000022318462037BD4680BD80B586B000AFF9
:10439000F860B9603B601346FB713BE03B6AB3F1E8
:1043A000FF3F37D0FDF7D0FF02463B68D31A3A6A89
:1043B0009A4202D33B6A002B01D103233AE0FB6807
:1043C0001B68DB6803F00403002B23D0BB68802B41
:1043D00020D0BB68402B1DD0FB681B681B6803F016
:1043E0000803082B16D100237B61FB681B681B6840
:1043F0007B61FB681B685B687B617B69F86800F028
:104400001DF8FB6808225A64FB68002283F84020EC
:1044100001230FE0FB681B681A68BB681340BA6889
:104420009A420CBF01230023DBB21A46FB799A4261
:10443000B4D0002318461837BD4680BD80B495B06F
:1044400000AF78607B681B680C337B637B6B53E841
:10445000003F3B633B6B23F49073FB647B681B68FA
:104460000C33FA6C3A64FB63F96B3A6C41E8002355
:10447000BB63BB6B002BE5D17B681B6814333B62CD
:104480003B6A53E8003FFB61FB6923F00103BB6417
:104490007B681B681433BA6CFA62BB62B96AFA6A49
:1044A00041E800237B627B6A002BE5D17B681B6BB4
:1044B000012B19D17B681B680C33FB60FB6853E848
:1044C000003FBB60BB6823F010037B647B681B6804
:1044D0000C337A6CBA617B617969BA6941E800236F
:1044E0003B613B69002BE5D17B68202283F84220A9
:1044F0007B6800221A6300BF5437BD465DF8047B19
:10450000704700002DE9B04FC0B000AFC7F8F4000D
:10451000D7F8F4301B681B6923F44050D7F8F43007
:10452000D968D7F8F4301A6840EA01031361D7F864
:10453000F4309A68D7F8F4301B691A43D7F8F4308E
:104540005B691A43D7F8F430DB691343C7F8F830D6
:10455000D7F8F4301B68DB6823F4164121F00C0116
:10456000D7F8F4301A68D7F8F8300B43D360D7F88F
:10457000F4301B685B6923F44070D7F8F430996914
:10458000D7F8F4301A6840EA01035361D7F8F430E1
:104590001A688F4B9A4205D0D7F8F4301A688D4BC1
:1045A0009A4204D1FEF7E8FDC7F8FC0003E0FEF7ED
:1045B000CFFDC7F8FC00D7F8F430DB69B3F5004F46
:1045C00040F00C81D7F8FC300022C7F8E830C7F87B
:1045D000EC20D7E93A4522462B469118B9655B4154
:1045E000FB65D7E91623214612EB0108294643EB68
:1045F00001094FF000024FF000034FEAC90343EAFC
:1046000058734FEAC80290469946234618EB0303B5
:10461000C7F8E0302B4649EB0303C7F8E430D7F87E
:10462000F4305B680022C7F8D830C7F8DC20D7E93F
:1046300036120B46DB183B65134642EB03037B65E2
:10464000D7E91423D7E93801FCF7B8F902460B463D
:10465000614BA3FB02235B091C01D7F8FC3000224D
:10466000C7F8D030C7F8D420D7E9348942464B4642
:104670009118B9645B41FB64D7E91223414612EB00
:10468000010A494643EB010B4FF000024FF00003D3
:104690004FEACB0343EA5A734FEACA0292469B465B
:1046A00043461AEB0303C7F8C8304B464BEB0303F2
:1046B000C7F8CC30D7F8F4305B680022C7F8C030B8
:1046C000C7F8C420D7E930120B46DB183B64134609
:1046D00042EB03037B64D7E91023D7E93201FCF7EF
:1046E0006DF902460B4611463B4BA3FB01235B09C8
:1046F000642202FB03F3CB1ADB0003F13202364BD8
:10470000A3FB02235B095B0003F4F8731C44D7F896
:10471000FC300022C7F8B830C7F8BC20D7E92E8992
:1047200042464B469118B9635B41FB63D7E90E23C0
:1047300041465118396349464B417B634FF00002B3
:104740004FF00003D7E90CAB5946CB00514643EA82
:1047500051735146CA0010461946034642469B18FB
:10476000C7F8B0304B460A4642EB0303C7F8B430F3
:10477000D7F8F4305B680022C7F8A830C7F8AC203F
:10478000D7E92A120B46DB18BB62134642EB030340
:10479000FB62D7E90A23D7E92C01FCF70FF902469F
:1047A0000B460D4BA3FB02135B09642101FB03F3D2
:1047B000D31ADB003233084AA2FB03235B0903F060
:1047C0000702D7F8F4301B6822449A6006E100BF64
:1047D00000100140001401401F85EB51D7F8FC3058
:1047E0000022C7F8A030C7F8A420D7E9288942469C
:1047F0004B46911839625B417B62D7E908234146F9
:104800005418494643EB01054FF000024FF00003F6
:10481000EB0043EA5473E20014461D464346E31896
:10482000C7F898304B4645EB0303C7F89C30D7F8E0
:10483000F4305B680022C7F89030C7F894204FF03E
:1048400000024FF00003D7E9244529468B0021469A
:1048500043EA917321468A00D7E92601FCF7AEF8B6
:1048600002460B46604BA3FB02235B091C01D7F8F1
:10487000FC300022C7F88830C7F88C20D7E922899D
:1048800042464B469118B9615B41FB61D7E906236B
:1048900041465118396149464B417B614FF0000256
:1048A0004FF00003D7E904AB5946CB00514643EA29
:1048B00051735146CA0010461946034642469B189A
:1048C000C7F880304B460A4642EB0303C7F88430F2
:1048D000D7F8F4305B680022BB67FA674FF000023C
:1048E0004FF00003D7E91E8949468B00414643EA51
:1048F000917341468A00D7E92001FCF75FF8024630
:104900000B461146384BA3FB01235B09642202FBD3
:1049100003F3CB1A1B013233334AA2FB03235B0997
:1049200003F0F0031C44D7F8FC3000223B677A67A1
:10493000D7E91C8942464B469118B9605B41FB6040
:10494000D7E9022341465118396049464B417B6003
:104950004FF000024FF00003D7E900AB5946CB00FF
:10496000514643EA51735146CA0010461946034660
:1049700042469B18BB664B460A4642EB0303FB6666
:10498000D7F8F4305B6800223B667A664FF000028D
:104990004FF00003D7E9188949468B00414643EAA6
:1049A000917341468A00D7E91A01FCF707F80246DD
:1049B0000B460D4BA3FB02135B09642101FB03F3C0
:1049C000D31A1B013233084AA2FB03235B0903F00D
:1049D0000F02D7F8F4301B6822449A6000BF07F535
:1049E0008077BD46BDE8B08F1F85EB5180B483B0A2
:1049F00000AF03463960FB7197F90730002B0ADBE3
:104A00003B68DAB20C4997F907301201D2B20B4475
:104A100083F800230AE03B68DAB20849FB7903F027
:104A20000F03043B1201D2B20B441A7600BF0C37BD
:104A3000BD465DF8047B704700E100E000ED00E05A
:104A400080B500AF054B1B6801F0EEFF0346012B5C
:104A500001D002F0E9FE00BF80BD00BF10E000E021
:104A600080B500AF00216FF00400FFF7BFFF00BF6B
:104A700080BD000080B483B000AFEFF305833B60DE
:104A80003B68002B03D06FF005037B600CE00A4B02
:104A90001B68002B05D1084B01221A6000237B60A4
:104AA00002E04FF0FF337B607B6818460C37BD4651
:104AB0005DF8047B704700BF7802002080B582B0AB
:104AC00000AFEFF305833B603B68002B03D06FF032
:104AD00005037B6010E00B4B1B68012B09D1FFF72E
:104AE000BFFF084B02221A6001F03AFB00237B60F3
:104AF00002E04FF0FF337B607B6818460837BD4605
:104B000080BD00BF7802002080B58EB004AFF86091
:104B1000B9607A6000233B61EFF305837B617B69B9
:104B2000002B7ED1FB68002B7BD080233B621823B7
:104B3000FB6100237B624FF0FF33BB617B68002B7E
:104B400045D07B681B68002B02D07B681B687B62AA
:104B50007B689B69002B02D07B689B69FB61FB69CA
:104B6000002B08D0FB69382B05D87B685B6803F005
:104B70000103002B01D0002354E07B685B69002B0C
:104B800003D07B685B699B083B627B689B68002B5A
:104B90000ED07B68DB68A72B0AD97B681B69002BCA
:104BA00006D07B685B69002B02D00123BB6110E05B
:104BB0007B689B68002B0CD17B68DB68002B08D1DD
:104BC0007B681B69002B04D10023BB6101E000233B
:104BD000BB61BB69012B10D17B681B697A68926845
:104BE00002920193FB690093BB683A6A796AF8689C
:104BF00001F0C2F803463B6113E0BB69002B10D102
:104C00003B6A9AB207F110030193FB690093BB68FA
:104C1000796AF86801F010F90346012B01D00023EE
:104C20003B613B6918462837BD4680BD80B584B0DE
:104C300000AF7860EFF30583BB60BB68002B03D047
:104C40006FF00503FB6007E00023FB607B68002B2F
:104C500002D0786801F04EFAFB6818461037BD465E
:104C600080BD80B58AB002AFF860B9607A60002379
:104C7000FB61EFF305833B613B69002B75D1FB685A
:104C8000002B72D0BA68FB689A426ED84FF0FF339F
:104C9000BB617B68002B15D07B689B68002B06D01E
:104CA0007B68DB684F2B02D90123BB610CE07B687A
:104CB0009B68002B08D17B68DB68002B04D10023A4
:104CC000BB6101E00023BB61BB69B3F1FF3F4CD086
:104CD000FB68012B28D1BB69012B0AD17B689B683B
:104CE0000322009200220021012000F095F9F861D2
:104CF00005E003220021012000F00BFAF861FB69B6
:104D0000002B22D0BB68002B1FD0002300220021E3
:104D1000F86900F0CBFA0346012B16D0F86900F0D1
:104D200057FE0023FB6110E0BB69012B08D17B68B3
:104D30009B681A46B968F86800F049FAF86104E01F
:104D4000B968F86800F07CFAF861FB69002B0CD0B8
:104D50007B68002B03D07B681B687B6101E000232C
:104D60007B617969F86900F07FFFFB69184620379D
:104D7000BD4680BD80B485B000AFF860B9607A6090
:104D8000FB68074A1A60BB68064A1A607B68802283
:104D90001A6000BF1437BD465DF8047B704700BF42
:104DA0007C0200202403002080B485B000AFF860AE
:104DB000B9607A60FB68074A1A60BB68064A1A60E5
:104DC0007B684FF480721A6000BF1437BD465DF8EF
:104DD000047B704724050020CC05002080B483B0FC
:104DE00000AF78607B6803F108027B685A607B68DB
:104DF0004FF0FF329A607B6803F108027B68DA604B
:104E00007B6803F108027B681A617B6800221A60E4
:104E100000BF0C37BD465DF8047B704780B483B09B
:104E200000AF78607B6800221A6100BF0C37BD4676
:104E30005DF8047B704780B485B000AF786039605E
:104E40007B685B68FB603B68FA685A60FB689A683D
:104E50003B689A60FB689B683A685A60FB683A68EE
:104E60009A603B687A681A617B681B685A1C7B6889
:104E70001A6000BF1437BD465DF8047B704780B4EC
:104E800085B000AF786039603B681B68BB60BB6869
:104E9000B3F1FF3F03D17B681B69FB600CE07B68CB
:104EA0000833FB6002E0FB685B68FB60FB685B68E3
:104EB0001B68BA689A42F6D2FB685A683B685A6027
:104EC0003B685B683A689A603B68FA689A60FB687E
:104ED0003A685A603B687A681A617B681B685A1C9A
:104EE0007B681A6000BF1437BD465DF8047B7047CD
:104EF00080B485B000AF78607B681B69FB607B681D
:104F00005B687A6892689A607B689B687A68526886
:104F10005A60FB685B687A689A4203D17B689A683A
:104F2000FB685A607B6800221A61FB681B685A1E86
:104F3000FB681A60FB681B6818461437BD465DF8AD
:104F4000047B704780B584B000AF786039607B68BF
:104F5000FB60FB68002B0BD14FF0500383F31188EB
:104F6000BFF36F8FBFF34F8FBB6000BF00BFFDE784
:104F700002F0CAFBFB681A68FB68DB6BF968096C16
:104F800001FB03F31A44FB689A60FB6800229A63F2
:104F9000FB681A68FB685A60FB681A68FB68DB6B81
:104FA000013BF968096C01FB03F31A44FB68DA6002
:104FB000FB68FF2283F84420FB68FF2283F845202A
:104FC0003B68002B14D1FB681B69002B1AD0FB68CF
:104FD0001033184601F062FB0346002B12D00D4B34
:104FE0004FF080521A60BFF34F8FBFF36F8F09E00D
:104FF000FB6810331846FFF7F1FEFB6824331846B0
:10500000FFF7ECFE02F0B2FB012318461037BD4655
:1050100080BD00BF04ED00E080B58EB002AFF86047
:10502000B9607A603B60FB68002B0BD14FF05003F6
:1050300083F31188BFF36F8FBFF34F8FBB6200BF45
:1050400000BFFDE73B68002B0BD14FF0500383F30B
:105050001188BFF36F8FBFF34F8F7B6200BF00BF1C
:10506000FDE77B68002B02D0BB68002B01D0012339
:1050700000E00023002B0BD14FF0500383F3118885
:10508000BFF36F8FBFF34F8F3B6200BF00BFFDE7E1
:105090007B68002B02D1BB68002B01D1012300E00B
:1050A0000023002B0BD14FF0500383F31188BFF383
:1050B0006F8FBFF34F8FFB6100BF00BFFDE7502331
:1050C0007B617B69502B0BD04FF0500383F3118829
:1050D000BFF36F8FBFF34F8FBB6100BF00BFFDE712
:1050E0007B693B68FB62FB6A002B0DD0FB6A0122E7
:1050F00083F8462097F83820FB6A009313467A68B5
:10510000B968F86800F040F8FB6A18463037BD46C9
:1051100080BD80B58AB002AFF860B9601346FB71FC
:10512000FB68002B0BD14FF0500383F31188BFF3C2
:105130006F8FBFF34F8F3B6100BF00BFFDE7FB6880
:10514000BA6802FB03F3FB61FB695033184602F0B7
:10515000FDFBB861BB69002B11D0BB697B617B692A
:1051600050337B61BB69002283F84620FA79BB6922
:10517000009313467A69B968F86800F005F8BB69CE
:1051800018462037BD4680BD80B584B000AFF860BA
:10519000B9607A60FB70BB68002B03D1BB69BA6948
:1051A0001A6002E0BB697A681A60BB69FA68DA6360
:1051B000BB69BA681A640121B869FFF7C3FEBB690D
:1051C000FA7883F84C2000BF1037BD4680BD80B50B
:1051D0008AB002AFF860B9607A60FB68002B0BD12F
:1051E0004FF0500383F31188BFF36F8FBFF34F8FDE
:1051F000BB6100BF00BFFDE7BA68FB689A420BD9EC
:105200004FF0500383F31188BFF36F8FBFF34F8FBD
:105210007B6100BF00BFFDE7022300937B68002293
:105220000021F868FFF7F8FEF861FB69002B02D057
:10523000FB69BA689A63FB6918462037BD4680BD92
:1052400080B586B000AF786039607B68002B0BD1E9
:105250004FF0500383F31188BFF36F8FBFF34F8F6D
:105260003B6100BF00BFFDE73A687B689A420BD9FB
:105270004FF0500383F31188BFF36F8FBFF34F8F4D
:10528000FB6000BF00BFFDE7022200217868FFF746
:1052900040FF78617B69002B02D07B693A689A6392
:1052A0007B6918461837BD4680BD000080B58EB0BA
:1052B00000AFF860B9607A603B6000237B63FB68F5
:1052C0003B633B6B002B0BD14FF0500383F31188F2
:1052D000BFF36F8FBFF34F8FBB6200BF00BFFDE70F
:1052E000BB68002B03D13B6B1B6C002B01D101234E
:1052F00000E00023002B0BD14FF0500383F3118803
:10530000BFF36F8FBFF34F8F7B6200BF00BFFDE71E
:105310003B68022B03D13B6BDB6B012B01D10123DB
:1053200000E00023002B0BD14FF0500383F31188D2
:10533000BFF36F8FBFF34F8F3B6200BF00BFFDE72E
:1053400001F072FB0346002B02D17B68002B01D1D8
:10535000012300E00023002B0BD14FF0500383F317
:105360001188BFF36F8FBFF34F8FFB6100BF00BF8A
:10537000FDE702F0C9F93B6B9A6B3B6BDB6B9A4222
:1053800002D33B68022B29D13A68B968386B00F028
:105390005BFBF8623B6B5B6A002B10D03B6B2433EA
:1053A000184601F07BF90346002B13D03F4B4FF01A
:1053B00080521A60BFF34F8FBFF36F8F0AE0FB6A12
:1053C000002B07D0394B4FF080521A60BFF34F8F3C
:1053D000BFF36F8F02F0CAF9012363E07B68002BF3
:1053E00003D102F0C3F900235CE07B6B002B06D1F4
:1053F00007F11403184601F0B5F901237B6302F0AD
:10540000B5F900F01DFF02F07FF93B6B93F84430D3
:105410005BB2B3F1FF3F03D13B6B002283F8442022
:105420003B6B93F845305BB2B3F1FF3F03D13B6B6D
:10543000002283F8452002F099F93A1D07F1140380
:105440001146184601F0A4F90346002B24D1386B0D
:1054500000F0F2FB0346002B18D03B6B10337A6848
:105460001146184601F0C8F8386B00F07DFB00F0DB
:10547000F5FE0346002B7FF47CAF0C4B4FF08052BF
:105480001A60BFF34F8FBFF36F8F72E7386B00F076
:105490006BFB00F0E3FE6CE7386B00F065FB00F09F
:1054A000DDFE002318463837BD4680BD04ED00E020
:1054B00080B590B000AFF860B9607A603B60FB687F
:1054C000BB63BB6B002B0BD14FF0500383F31188F0
:1054D000BFF36F8FBFF34F8FBB6200BF00BFFDE70D
:1054E000BB68002B03D1BB6B1B6C002B01D10123CC
:1054F00000E00023002B0BD14FF0500383F3118801
:10550000BFF36F8FBFF34F8F7B6200BF00BFFDE71C
:105510003B68022B03D1BB6BDB6B012B01D1012359
:1055200000E00023002B0BD14FF0500383F31188D0
:10553000BFF36F8FBFF34F8F3B6200BF00BFFDE72C
:1055400002F0C2F9EFF311824FF0500383F3118898
:10555000BFF36F8FBFF34F8FFA61BB61FB697B6352
:10556000BB6B9A6BBB6BDB6B9A4202D33B68022B23
:105570002FD1BB6B93F8453087F83330BB6B9B6BF7
:10558000FB623A68B968B86B00F05EFA97F933309D
:10559000B3F1FF3F12D1BB6B5B6A002B16D0BB6B24
:1055A0002433184601F07AF80346002B0ED07B68AE
:1055B000002B0BD07B6801221A6007E097F833308C
:1055C0000133DBB25AB2BB6B83F845200123FB6386
:1055D00001E00023FB637B6B7B617B6983F31188B4
:1055E00000BFFB6B18464037BD4680BD80B58CB010
:1055F00000AFF860B9607A600023FB62FB68BB62B1
:10560000BB6A002B0BD14FF0500383F31188BFF31B
:105610006F8FBFF34F8F3B6200BF00BFFDE7BB68DA
:10562000002B03D1BB6A1B6C002B01D1012300E0CE
:105630000023002B0BD14FF0500383F31188BFF3ED
:105640006F8FBFF34F8FFB6100BF00BFFDE701F01D
:10565000EBF90346002B02D17B68002B01D101231B
:1056600000E00023002B0BD14FF0500383F311888F
:10567000BFF36F8FBFF34F8FBB6100BF00BFFDE76C
:1056800002F042F8BB6A9B6B7B627B6A002B1FD0E7
:10569000B968B86A00F042FA7B6A5A1EBB6A9A631C
:1056A000BB6A1B69002B0FD0BB6A1033184600F091
:1056B000F5FF0346002B07D03C4B4FF080521A6099
:1056C000BFF34F8FBFF36F8F02F050F8012369E0F3
:1056D0007B68002B03D102F049F8002362E0FB6AEB
:1056E000002B06D107F11003184601F03BF8012307
:1056F000FB6202F03BF800F0A3FD02F005F8BB6A84
:1057000093F844305BB2B3F1FF3F03D1BB6A002290
:1057100083F84420BB6A93F845305BB2B3F1FF3F96
:1057200003D1BB6A002283F8452002F01FF83A1D1E
:1057300007F110031146184601F02AF80346002B22
:1057400023D1B86A00F062FA0346002B17D0BB6A77
:1057500024337A681146184600F04EFFB86A00F00C
:1057600003FA00F07BFD0346002B89D10F4B4FF06D
:1057700080521A60BFF34F8FBFF36F8F80E7B86A14
:1057800000F0F2F900F06AFD7AE7B86A00F0ECF98F
:1057900000F064FDB86A00F039FA0346002B3FF4CC
:1057A0006FAF002318463037BD4680BD04ED00E0E2
:1057B00080B58EB000AF7860396000237B637B6872
:1057C000FB6200233B63FB6A002B0BD14FF05003BD
:1057D00083F31188BFF36F8FBFF34F8F3B6200BF1E
:1057E00000BFFDE7FB6A1B6C002B0BD04FF0500392
:1057F00083F31188BFF36F8FBFF34F8FFB6100BF3F
:1058000000BFFDE701F010F90346002B02D13B6811
:10581000002B01D1012300E00023002B0BD14FF01E
:10582000500383F31188BFF36F8FBFF34F8FBB61BA
:1058300000BF00BFFDE701F067FFFB6A9B6BBB6227
:10584000BB6A002B24D0BB6A5A1EFB6A9A63FB6AB0
:105850001B68002B04D101F061FA0246FB6A9A60D2
:10586000FB6A1B69002B0FD0FB6A1033184600F04F
:1058700015FF0346002B07D0544B4FF080521A609F
:10588000BFF34F8FBFF36F8F01F070FF012398E0DC
:105890003B68002B12D13B6B002B0BD04FF0500319
:1058A00083F31188BFF36F8FBFF34F8F7B6100BF0E
:1058B00000BFFDE701F05AFF002382E07B6B002B65
:1058C00006D107F10C03184600F04CFF01237B635F
:1058D00001F04CFF00F0B4FC01F016FFFB6A93F8F6
:1058E00044305BB2B3F1FF3F03D1FB6A002283F87F
:1058F0004420FB6A93F845305BB2B3F1FF3F03D11C
:10590000FB6A002283F8452001F030FF3A4607F198
:105910000C031146184600F03BFF0346002B32D122
:10592000F86A00F073F90346002B26D0FB6A1B6867
:10593000002B09D101F0E8FEFB6A9B68184601F0D4
:1059400091F8386301F012FFFB6A24333A6811467C
:10595000184600F051FEF86A00F006F900F07EFCEF
:105960000346002B7FF467AF184B4FF080521A604C
:10597000BFF34F8FBFF36F8F5DE7F86A00F0F4F865
:1059800000F06CFC57E7F86A00F0EEF800F066FCF7
:10599000F86A00F03BF90346002B3FF44CAF3B6B39
:1059A000002B0DD001F0B0FEF86A00F035F87862F7
:1059B000FB6A9B68796A184601F02CF901F0D6FE63
:1059C000002318463837BD4680BD00BF04ED00E017
:1059D00080B584B000AF78607B68FB60FB68002B0B
:1059E0000BD14FF0500383F31188BFF36F8FBFF3D8
:1059F0004F8FBB6000BF00BFFDE7F86800F05EF9A5
:105A0000FB6893F84630002B02D1F86802F06CF87E
:105A100000BF1037BD4680BD80B485B000AF786050
:105A20007B685B6A002B06D07B681B6B1B68C3F12D
:105A30003803FB6001E00023FB60FB681846143765
:105A4000BD465DF8047B704780B586B000AFF86056
:105A5000B9607A6000237B61FB689B6B3B61FB68EC
:105A60001B6C002B0DD1FB681B68002B4DD1FB6814
:105A70009B68184601F05EF87861FB6800229A6026
:105A800043E07B68002B19D1FB685868FB681B6CEE
:105A90001A46B96802F0DCF9FB685A68FB681B6CAF
:105AA0001A44FB685A60FB685A68FB689B689A4214
:105AB0002BD3FB681A68FB685A6026E0FB68D8683D
:105AC000FB681B6C1A46B96802F0C2F9FB68DA6819
:105AD000FB681B6C5B421A44FB68DA60FB68DA689F
