:020000040800F2
:100000000000012011120008A1110008A911000828
:10001000B1110008B9110008C1110008000000006A
:10002000000000000000000000000000B1640008B3
:10003000C9110008000000000167000881390008AC
:1000400061120008611200086112000861120008C4
:1000500061120008611200086112000861120008B4
:1000600061120008611200086112000861120008A4
:100070006112000861120008611200086112000894
:1000800061120008611200086112000800000000FF
:1000900000000000000000000000000061120008E5
:1000A0006112000861120008611200086112000864
:1000B000D9110008611200086112000861120008DD
:1000C0006112000861120008611200086112000844
:1000D00061120008611200086112000800000000AF
:1000E000611200086112000861120008000000009F
:1000F0000000000000000000000000006112000885
:10010000000000006112000861120008611200087E
:1001100000000000000000000000000000000000DF
:1001200061120008611200086112000861120008E3
:100130006112000800000000000000000000000044
:100140000000000000000000000000006112000834
:1001500061120008611200086112000861120008B3
:100160006112000861120008000000000000000099
:10017000000000000000000000000000000000007F
:1001800000000000611200080000000000000000F4
:0401900061120008F0
:1001A00010B5054C237833B9044B13B10448AFF3B1
:1001B00000800123237010BD6000002000000000BB
:1001C000386E000808B5034B1BB103490348AFF371
:1001D000008008BD0000000064000020386E0008A8
:1001E00053B94AB9002908BF00281CBF4FF0FF319E
:1001F0004FF0FF3000F06AB9ADF1080C6DE904CEA4
:1002000000F006F8DDF804E0DDE9022304B07047F1
:100210002DE9F047089D0C46002B4ED194468C45A5
:100220008646B2FA82F262D94AB1C2F12003914005
:1002300020FA03F30CFA02FC194300FA02FE4FEA1B
:100240001C471FFA8CF6B1FBF7F44FEA1E4307FB7D
:10025000141143EA014304FB06F199420AD91CEB4D
:10026000030304F1FF3080F01281994240F20F81C4
:10027000023C6344591A1FFA8EF3B1FBF7F007FBF7
:10028000101143EA014300FB06F69E420AD91CEB1B
:10029000030300F1FF3180F0FC809E4240F2F980C0
:1002A000634402389B1B40EA044000211DB1D34047
:1002B0000022C5E90032BDE8F0878B4205D90DB1B7
:1002C000C5E9000100210846F5E7B3FA83F10029EA
:1002D00046D1A34202D39042C0F0F080861A64EB6C
:1002E00003030120002DE6D0C5E90063E3E7002AFF
:1002F00040F09080A1EB0C044FEA1C481FFA8CF7E9
:100300000121B4FBF8F64FEA1E4308FB164443EA0A
:10031000044307FB06F0984208D91CEB030306F1DF
:10032000FF3402D2984200F2CD8026461C1A1FFAF2
:100330008EF3B4FBF8F008FB104443EA044300FBDF
:1003400007F79F4208D91CEB030300F1FF3402D2E8
:100350009F4200F2B0802046DB1B40EA0640A5E742
:10036000C1F120068B4022FA06F71F4320FA06FC53
:1003700004FA01F343EA0C03F44000FA01F8380CE4
:100380004FEA1349B4FBF0FE1FFA87FC00FB1E4442
:1003900049EA04440EFB0CF9A14502FA01F20AD91C
:1003A0003C190EF1FF3A80F08480A14540F2818033
:1003B000AEF1020E3C44A4EB09041FFA83F9B4FB2E
:1003C000F0F300FB134449EA044403FB0CFCA4458E
:1003D00007D93C1903F1FF3067D2A44565D9023B28
:1003E0003C4443EA0E40A0FB0293A4EB0C049C4265
:1003F000CE469C4651D34ED055B1B8EB0E0364EBBC
:100400000C0404FA06F6CB401E43CC40C5E9006458
:10041000002150E7C2F1200320FA03F10CFA02FC9C
:1004200024FA03F394400C434FEA1C4800FA02FEFE
:100430001FFA8CF7B3FBF8F008FB1031230C43EAEA
:10044000014300FB07F1994208D91CEB030300F1BB
:10045000FF362CD299422AD9023863445B1AA4B2DF
:10046000B3FBF8F108FB113344EA034401FB07F343
:10047000A34208D91CEB040401F1FF3613D2A342B6
:1004800011D902396444E41A41EA004139E70446CB
:10049000F0E6084606E7C845AED2B9EB020E63EBBC
:1004A000070C0138A8E73146EDE7034699E73046E7
:1004B000D4E7D6467FE7634402384DE70646234635
:1004C00008460FE7023E634430E700BF704700BFB5
:1004D00080B400AF0C4B1A780C4B1A700A4B5A7848
:1004E0000A4B5A70084B9A78084B9A70064BDA7888
:1004F000064BDA70044B1A79044B1A7100BFBD46E3
:100500005DF8047B704700BF840000207C00002061
:1005100080B582B000AF0023BB71184B1B684FF051
:10052000FF31184604F0E4F80346012BF5D1B91D5C
:100530004FF0FF330122124802F030FE0346FB71F8
:10054000BB79552BF3D1FB79002B0ED1BB79552B01
:100550000BD10C494FF0FF330522094802F01EFE73
:10056000BA79094B1A70FFF7B3FF084B18680023DC
:100570000022002103F03AFECFE700BFC4010020B3
:10058000700100208500002084000020C8010020A8
:1005900090B585B002AF254B9B7818466423009335
:1005A0000023FF22002100F0DFF803461C461F4B0A
:1005B000DB781846642300930023FF22002100F01B
:1005C000D3F803461946204600F0B8F87860174B78
:1005D000DB78FF2B06D0154B9B78002B02D1002334
:1005E0007B6005E0114BDB78FF2B01D100237B60A2
:1005F0000F4B4CF250325A6000220D490D4802F068
:1006000081F90B4B4CF250321A6204220A49094814
:1006100002F078F90021074801F0A0FE0421054806
:1006200001F09CFE00BF0C37BD4690BD8400002049
:100630008C000020E0000020A800002080B500AF62
:1006400000F02CF80021114801F088FE04210F4829
:1006500001F084FE08210D4801F080FE3C210C4889
:1006600001F0D2FF0B4B1B684FF0FF31184604F02E
:100670003FF80346012BF5D1FFF78AFF064B1868B8
:1006800000230022002103F0B1FDEBE7E000002091
:1006900028010020C8010020C401002080B582B0DC
:1006A00000AF0023FB710023FB7129E0FA791F4999
:1006B0001346DB009B1A9B000B4460221A60FA79F8
:1006C0001A491346DB009B1A9B000B44043300229B
:1006D0001A60FA7915491346DB009B1A9B000B44FC
:1006E000083300221A60FA7910491346DB009B1A7E
:1006F0009B000B44103300221A60FB790133FB711D
:10070000FB79022BD2D900220849094802F0FAF8F5
:1007100004220849064802F0F5F808220649044870
:1007200002F0F0F800BF0837BD4680BD8C00002005
:10073000E0000020A8000020C400002080B483B0A6
:1007400000AF786039607A683B689A4203D97A686A
:100750003B68D31A02E03A687B68D31A18460C3714
:10076000BD465DF8047B704780B487B000AFF86089
:10077000B9607A603B60FA68BB689A4202DABB688B
:10078000FB6005E0FA687B689A4201DD7B68FB60EC
:10079000FA68BB68D31A396A3A688A1A03FB02F20C
:1007A0007968BB68CB1A92FBF3F33A6813447B6118
:1007B0007B6918461C37BD465DF8047B7047000016
:1007C00080B500AF00F04EFD00F05EF800F0E2F9F9
:1007D00000F0BAF800F0B4F900F05EF900F01EFA8B
:1007E00003F0E8F8194A0021012003F0DAF9034682
:1007F000174A1360174A0121012003F0D2F903467A
:10080000154A1360154A0021012003F0CAF9034676
:10081000134A1360134A0021134803F015F90346E5
:10082000124A1360124A0021124803F00DF90346E0
:10083000114A1360114A0021114803F005F90346DB
:10084000104A136003F0DAF800BFFDE7346F0008C8
:10085000C4010020446F0008C8010020546F000844
:10086000CC010020C86E00083D0E0008B801002031
:10087000EC6E000811050008BC010020106F000894
:100880003D060008C001002080B594B000AF07F11C
:10089000200330220021184606F0E6F907F10C0388
:1008A00000221A605A609A60DA601A610023BB6005
:1008B000234B1B6C224A43F080531364204B1B6C68
:1008C00003F08053BB60BB6800237B601D4B1B683B
:1008D00023F440431B4A43F400431360194B1B6845
:1008E00003F440437B607B6802233B620123FB628D
:1008F00010233B630023BB6307F12003184600F07D
:1009000097FF0346002B01D000F0AFFA0F23FB60E6
:1009100000233B6100237B614FF48053BB610023C4
:10092000FB6107F10C030021184601F0F9F90346B9
:10093000002B01D000F099FA00BF5037BD4680BDB2
:10094000003802400070004080B592B000AF07F15F
:10095000400300221A605A6007F1240300221A6043
:100960005A609A60DA601A615A619A613B1D2022CE
:100970000021184606F078F9454B464A1A60444B68
:1009800001225A60424B00229A60414B4FF6FF729F
:10099000DA603F4B00221A613D4B00225A613C4B0A
:1009A00000229A613A4801F089FC0346002B01D0ED
:1009B00000F05BFA00233B6400237B6407F14003F3
:1009C0001946334802F0C6FA0346002B01D000F066
:1009D0004CFA60237B620023BB620023FB6200238E
:1009E0003B6300237B630023BB630023FB6307F1AE
:1009F000240300221946264801F084FF0346002BF9
:100A000001D000F032FA07F12403042219462048ED
:100A100001F078FF0346002B01D000F026FA07F121
:100A20002403082219461A4801F06CFF0346002BE4
:100A300001D000F01AFA07F124030C2219461448D9
:100A400001F060FF0346002B01D000F00EFA0023F6
:100A50007B600023BB600023FB6000233B6100231D
:100A60007B614FF40053BB6100233B623B1D194681
:100A7000074802F0DDFA0346002B01D000F0F5F93B
:100A8000034800F08FFA00BF4837BD4680BD00BF65
:100A9000E00000200000014080B58CB000AF07F1FD
:100AA0000C0324220021184606F0DEF83B1D00222C
:100AB0001A605A60204B214A1A601F4B00225A606C
:100AC0001D4B00229A601C4B4FF6FF72DA601A4BE6
:100AD00000221A61184B80229A610323FB600023D5
:100AE0003B6101237B610023BB610023FB61002389
:100AF0003B6201237B620023BB620A23FB6207F196
:100B00000C0319460C4801F0D9FC0346002B01D018
:100B100000F0ABF900237B600023BB603B1D19464E
:100B2000054802F017FA0346002B01D000F09DF9AA
:100B300000BF3037BD4680BD2801002000040040C2
:100B400080B500AF114B124A1A60104B4FF4165289
:100B50005A600E4B00229A600C4B0022DA600B4B5D
:100B600000221A61094B0C225A61084B00229A613B
:100B7000064B0022DA61054802F0C0FA0346002B5A
:100B800001D000F072F900BF80BD00BF70010020ED
:100B90000044004080B588B000AF07F10C0300228C
:100BA0001A605A609A60DA601A610023BB60194BC0
:100BB0001B6B184A43F001031363164B1B6B03F0C6
:100BC0000103BB60BB6800237B60124B1B6B114AA7
:100BD00043F0020313630F4B1B6B03F002037B60B4
:100BE0007B6800224FF460410B4800F007FE4FF491
:100BF0006043FB6001233B6100237B610023BB61F9
:100C000007F10C031946044800F074FC00BF2037BC
:100C1000BD4680BD003802400004024080B58CB063
:100C200000AF0023FB6200237B62002387F82B3098
:100C30003C217C4801F0E8FC60237B600023BB6022
:100C40000023FB6000237B613B1D08221946764888
:100C500001F058FE3AE0754B5B6A1BB203F5FA737C
:100C6000FB62FB6A7B6200224FF40051704800F087
:100C7000C5FD48F6B803BB603B1D082219466A480B
:100C800001F040FE0821684801F068FB674B5B6A91
:100C90001BB203F5FA73FB62FA6A7B6A9A4209D0C7
:100CA0007B6A0133FA6A9A4204D07B6A013BFA6A92
:100CB0009A4205D197F82B30013387F82B3002E0A8
:100CC000002387F82B30642000F00EFB97F82B30C0
:100CD000052BC0D90023BB603B1D08221946524892
:100CE00001F010FE0821504801F038FB514AFB6A20
:100CF00013604FF4FA7000F0F7FA002387F82B30F6
:100D00003AE04A4B5B6A1BB203F5FA73FB62FB6A7B
:100D10007B6201224FF40051454800F06FFD48F618
:100D2000B803BB603B1D082219463F4801F0EAFDAD
:100D300008213D4801F012FB3C4B5B6A1BB203F5F6
:100D4000FA73FB62FA6A7B6A9A4209D07B6A0133C2
:100D5000FA6A9A4204D07B6A013BFA6A9A4205D148
:100D600097F82B30013387F82B3002E0002387F807
:100D70002B30642000F0B8FA97F82B30052BC0D93F
:100D80000023BB603B1D08221946274801F0BAFD2D
:100D90000821254801F0E2FA274AFB6A13604FF464
:100DA000FA7000F0A1FA244B1A68224B1B68134416
:100DB000DA0F13445B103B621EE01C4B5B6A1BB2F4
:100DC00003F5FA73FB6200224FF40051184800F05B
:100DD00015FD48F6B803BB603B1D082219461248B2
:100DE00001F090FD0821104801F0B8FA0F4B5B6A42
:100DF0001BB203F5FA73FB623B6A2733FA6A9A4225
:100E0000DBDC0023BB603B1D08221946064801F0CD
:100E100079FD0821044801F0A1FA00BF3037BD4632
:100E200080BD00BF28010020E00000200004004039
:100E300000040240D0010020D401002080B582B01F
:100E400000AF7860012002F091FEFBE780B582B030
:100E500000AF78607B681B68B3F1804F01D100F070
:100E600023FA00BF0837BD4680BD80B400AF72B61C
:100E700000BF00BFFDE7000080B582B000AF0023D7
:100E80007B60124B5B6C114A43F4804353640F4BFD
:100E90005B6C03F480437B607B6800233B600B4BFF
:100EA0001B6C0A4A43F080531364084B1B6C03F01D
:100EB00080533B603B6800220F216FF0010000F07F
:100EC000EFFA00BF0837BD4680BD00BF00380240C2
:100ED00080B485B000AF78607B681B680B4A934292
:100EE0000DD10023FB600A4B5B6C094A43F0010300
:100EF0005364074B5B6C03F00103FB60FB6800BFAE
:100F00001437BD465DF8047B704700BF0000014008
:100F10000038024080B58AB000AF786007F1140352
:100F200000221A605A609A60DA601A617B681B6856
:100F3000194A93422BD100233B61184B1B6C174A73
:100F400043F002031364154B1B6C03F002033B6177
:100F50003B690023FB60114B1B6B104A43F00103FC
:100F600013630E4B1B6B03F00103FB60FB68C02394
:100F70007B610223BB610023FB6100233B620223F0
:100F80007B6207F114031946054800F0B3FA00BF6D
:100F90002837BD4680BD00BF000400400038024035
:100FA0000000024080B588B000AF786007F10C0304
:100FB00000221A605A609A60DA601A617B681B68C6
:100FC000124A93421ED10023BB60114B1B6B104A87
:100FD00043F0010313630E4B1B6B03F00103BB6073
:100FE000BB684FF47063FB6002233B6100237B61AD
:100FF0000023BB610123FB6107F10C03194605487F
:1010000000F078FA00BF2037BD4680BD00000140E7
:10101000003802400000024080B58AB000AF78601E
:1010200007F1140300221A605A609A60DA601A61AC
:101030007B681B68194A93422BD100233B61184BF4
:101040001B6C174A43F400331364154B1B6C03F4F9
:1010500000333B613B690023FB60114B1B6B104A63
:1010600043F0010313630E4B1B6B03F00103FB60A2
:10107000FB680C237B610223BB610023FB6103231C
:101080003B6207237B6207F114031946054800F011
:1010900031FA00BF2837BD4680BD00BF0044004084
:1010A000003802400000024080B58EB000AF78608A
:1010B0000023FB620023BB620023FB60344B1B6CEC
:1010C000334A43F001031364314B1B6C03F00103FB
:1010D000FB60FB6807F1100207F114031146184684
:1010E00000F0FEFF3B6AFB62FB6A002B03D100F0BD
:1010F000CFFF786304E000F0CBFF03465B007B6327
:101100007B6B244AA2FB03239B0C013BBB62224B5B
:101110004FF080421A60204B40F2E732DA601E4AFC
:10112000BB6A53601C4B00221A611B4B00229A6061
:10113000194B00229A61184801F004F8034687F819
:10114000333097F83330002B1BD1134801F054F89B
:10115000034687F8333097F83330002B11D11C2029
:1011600000F0BAF97B680F2B08D8002279681C20A0
:1011700000F096F9094A7B68136002E0012387F8C2
:10118000333097F8333018463837BD4680BD00BF3E
:101190000038024083DE1B43D801002004000020F9
:1011A00080B400AF00BFFDE780B400AF00BFFDE733
:1011B00080B400AF00BFFDE780B400AF00BFFDE723
:1011C00080B400AF00BFFDE780B400AF00BFBD46F4
:1011D0005DF8047B7047000080B500AF024801F065
:1011E000A1FA00BF80BD00BFD801002080B400AFCD
:1011F000064BD3F88830054A43F47003C2F88830B0
:1012000000BFBD465DF8047B704700BF00ED00E005
:10121000DFF834D0FFF7EAFF0C480D490D4A0023F0
:1012200002E0D458C4500433C4188C42F9D30A4A9B
:101230000A4C002301E013600432A242FBD305F004
:1012400071FDFFF7BDFA704700000120000000208B
:10125000600000208C6F0008600000204C4D0020D2
:10126000FEE7000080B500AF0E4B1B680D4A43F44B
:10127000007313600B4B1B680A4A43F480631360CE
:10128000084B1B68074A43F480731360032000F087
:10129000FCF80F20FFF708FFFFF7EEFD00231846CC
:1012A00080BD00BF003C024080B400AF064B1B78FD
:1012B0001A46064B1B681344044A136000BFBD4620
:1012C0005DF8047B704700BF08000020200200206A
:1012D00080B400AF034B1B681846BD465DF8047B25
:1012E000704700BF2002002080B584B000AF786056
:1012F000FFF7EEFFB8607B68FB60FB68B3F1FF3F70
:1013000005D00A4B1B781A46FB681344FB6000BFEC
:10131000FFF7DEFF0246BB68D31AFA689A42F7D895
:1013200000BF00BF1037BD4680BD00BF08000020D1
:1013300080B485B000AF78607B6803F00703FB6082
:101340000C4BDB68BB60BA684FF6FF031340BB6011
:10135000FB681A02BB68134343F0BF6343F40033D6
:10136000BB60044ABB68D36000BF1437BD465DF85C
:10137000047B704700ED00E080B400AF044BDB68F5
:101380001B0A03F007031846BD465DF8047B70474F
:1013900000ED00E080B483B000AF0346FB7197F925
:1013A0000730002B0BDBFB7903F01F02074997F98D
:1013B00007305B09012000FA02F241F8232000BF48
:1013C0000C37BD465DF8047B704700BF00E100E0CC
:1013D00080B483B000AF03463960FB7197F90730E2
:1013E000002B0ADB3B68DAB20C4997F9073012018F
:1013F000D2B20B4483F800230AE03B68DAB2084912
:10140000FB7903F00F03043B1201D2B20B441A76AE
:1014100000BF0C37BD465DF8047B704700E100E07B
:1014200000ED00E080B489B000AFF860B9607A6088
:10143000FB6803F00703FB61FB69C3F10703042B9F
:1014400028BF0423BB61FB690433062B02D9FB6967
:10145000033B00E000237B614FF0FF32BB6902FADF
:1014600003F3DA43BB681A407B699A404FF0FF31BF
:101470007B6901FA03F3D9437B680B401343184699
:101480002437BD465DF8047B704780B582B000AF5D
:1014900078607868FFF74CFF00BF0837BD4680BD15
:1014A00080B586B000AF0346B9607A60FB73002355
:1014B0007B61FFF761FF78617A68B9687869FFF747
:1014C000B1FF024697F90F3011461846FFF780FF2B
:1014D00000BF1837BD4680BD80B582B000AF03465F
:1014E000FB7197F907301846FFF754FF00BF083724
:1014F000BD4680BD80B489B000AF786039600023FC
:101500007B6100233B610023BB610023FB6159E148
:101510000122FB6902FA03F37B613B681B687A696D
:1015200013403B613A697B699A4240F048813B68CD
:101530005B6803F00303012B05D03B685B6803F095
:101540000303022B30D17B689B68BB61FB695B00A6
:10155000032202FA03F3DB43BA691340BB613B6821
:10156000DA68FB695B0002FA03F3BA691343BB61F3
:101570007B68BA699A607B685B68BB610122FB6922
:1015800002FA03F3DB43BA691340BB613B685B6853
:101590001B0903F00102FB6902FA03F3BA69134362
:1015A000BB617B68BA695A603B685B6803F0030300
:1015B000032B17D07B68DB68BB61FB695B000322F0
:1015C00002FA03F3DB43BA691340BB613B689A68D4
:1015D000FB695B0002FA03F3BA691343BB617B68E2
:1015E000BA69DA603B685B6803F00303022B23D11E
:1015F000FB69DA087B68083253F82230BB61FB696B
:1016000003F007039B000F2202FA03F3DB43BA69DE
:101610001340BB613B681A69FB6903F007039B0039
:1016200002FA03F3BA691343BB61FB69DA087B680A
:101630000832B96943F822107B681B68BB61FB69FB
:101640005B00032202FA03F3DB43BA691340BB6178
:101650003B685B6803F00302FB695B0002FA03F37B
:10166000BA691343BB617B68BA691A603B685B68FF
:1016700003F44033002B00F0A2800023FB60574BA3
:101680005B6C564A43F480435364544B5B6C03F4E5
:101690008043FB60FB68524AFB699B08023352F8A7
:1016A0002330BB61FB6903F003039B000F2202FAA6
:1016B00003F3DB43BA691340BB617B68494A934239
:1016C00019D07B68484A934213D07B68474A9342BB
:1016D0000DD07B68464A934207D07B68454A9342C7
:1016E00001D1042308E0072306E0032304E00223DA
:1016F00002E0012300E00023FA6902F003029200F5
:101700009340BA691343BB613549FB699B080233B7
:10171000BA6941F82320384B9B68BB613B69DB43C6
:10172000BA691340BB613B685B6803F48013002B0C
:1017300003D0BA693B691343BB612F4ABB6993600D
:101740002D4BDB68BB613B69DB43BA691340BB616E
:101750003B685B6803F40013002B03D0BA693B6954
:101760001343BB61244ABB69D360234B5B68BB61F5
:101770003B69DB43BA691340BB613B685B6803F4B8
:101780000033002B03D0BA693B691343BB611A4A8B
:10179000BB695360184B1B68BB613B69DB43BA698B
:1017A0001340BB613B685B6803F48033002B03D0BC
:1017B000BA693B691343BB610F4ABB691360FB699C
:1017C0000133FB61FB690F2B7FF6A2AE00BF00BFA8
:1017D0002437BD465DF8047B704700BF00380240E7
:1017E00000380140000002400004024000080240AE
:1017F000000C024000100240003C014080B483B065
:1018000000AF78600B467B8013467B707B78002BA3
:1018100003D07A887B689A6103E07B881A047B682E
:101820009A6100BF0C37BD465DF8047B704700002D
:1018300080B586B000AF78607B68002B01D10123B2
:1018400067E27B681B6803F00103002B75D0884BAF
:101850009B6803F00C03042B0CD0854B9B6803F0B2
:101860000C03082B12D1824B5B6803F48003B3F5A1
:10187000800F0BD17E4B1B6803F40033002B5BD031
:101880007B685B68002B57D1012342E27B685B6871
:10189000B3F5803F06D1764B1B68754A43F480331D
:1018A00013601DE07B685B68B3F5A02F0CD1704B13
:1018B0001B686F4A43F4802313606D4B1B686C4AAE
:1018C00043F4803313600BE0694B1B68684A23F4D0
:1018D00080331360664B1B68654A23F480231360D2
:1018E0007B685B68002B13D0FFF7F2FC386108E0DF
:1018F000FFF7EEFC02463B69D31A642B01D90323A0
:1019000007E25B4B1B6803F40033002BF0D014E0BC
:10191000FFF7DEFC386108E0FFF7DAFC02463B69BE
:10192000D31A642B01D90323F3E1514B1B6803F451
:101930000033002BF0D100E000BF7B681B6803F090
:101940000203002B63D04A4B9B6803F00C03002B6F
:101950000BD0474B9B6803F00C03082B1CD1444B66
:101960005B6803F48003002B16D1414B1B6803F026
:101970000203002B05D07B68DB68012B01D001231B
:10198000C7E13B4B1B6823F0F8027B681B69DB0057
:10199000374913430B603AE07B68DB68002B20D0AB
:1019A000344B01221A60FFF793FC386108E0FFF71F
:1019B0008FFC02463B69D31A022B01D90323A8E10D
:1019C0002B4B1B6803F00203002BF0D0284B1B6845
:1019D00023F0F8027B681B69DB00254913430B6089
:1019E00015E0244B00221A60FFF772FC386108E012
:1019F000FFF76EFC02463B69D31A022B01D9032381
:101A000087E11B4B1B6803F00203002BF0D17B68BE
:101A10001B6803F00803002B36D07B685B69002B42
:101A200016D0154B01221A60FFF752FC386108E00E
:101A3000FFF74EFC02463B69D31A022B01D9032360
:101A400067E10B4B5B6F03F00203002BF0D01BE050
:101A5000094B00221A60FFF73BFC38610EE0FFF7EC
:101A600037FC02463B69D31A022B07D9032350E106
:101A70000038024000004742800E4742884B5B6FAF
:101A800003F00203002BEAD17B681B6803F0040318
:101A9000002B00F097800023FB75814B1B6C03F03B
:101AA0008053002B0FD10023BB607D4B1B6C7C4A05
:101AB00043F0805313647A4B1B6C03F08053BB607C
:101AC000BB680123FB75774B1B6803F48073002B05
:101AD00018D1744B1B68734A43F480731360FFF78B
:101AE000F7FB386108E0FFF7F3FB02463B69D31AC6
:101AF000022B01D903230CE16A4B1B6803F48073AA
:101B0000002BF0D07B689B68012B06D1644B1B6FC8
:101B1000634A43F0010313671CE07B689B68052B55
:101B20000CD15F4B1B6F5E4A43F0040313675C4BA1
:101B30001B6F5B4A43F0010313670BE0584B1B6FAD
:101B4000574A23F001031367554B1B6F544A23F088
:101B5000040313677B689B68002B15D0FFF7B8FB65
:101B600038610AE0FFF7B4FB02463B69D31A41F241
:101B70008832934201D90323CBE0494B1B6F03F01A
:101B80000203002BEED014E0FFF7A2FB38610AE05D
:101B9000FFF79EFB02463B69D31A41F2883293421B
:101BA00001D90323B5E03E4B1B6F03F00203002B6A
:101BB000EED1FB7D012B05D1394B1B6C384A23F04C
:101BC000805313647B689B69002B00F0A180344B29
:101BD0009B6803F00C03082B5CD07B689B69022B8D
:101BE00041D1314B00221A60FFF772FB386108E0E7
:101BF000FFF76EFB02463B69D31A022B01D9032380
:101C000087E0274B1B6803F00073002BF0D17B6843
:101C1000DA697B681B6A1A437B685B6A9B011A431B
:101C20007B689B6A5B08013B1B041A437B68DB6A89
:101C30001B061B4913434B601B4B01221A60FFF725
:101C400047FB386108E0FFF743FB02463B69D31AC4
:101C5000022B01D903235CE0114B1B6803F00073D6
:101C6000002BF0D054E0104B00221A60FFF730FB3D
:101C7000386108E0FFF72CFB02463B69D31A022BC0
:101C800001D9032345E0064B1B6803F00073002BCA
:101C9000F0D13DE07B689B69012B07D1012338E03F
:101CA0000038024000700040600047421B4B5B68F8
:101CB000FB607B689B69012B28D0FB6803F48002E2
:101CC0007B68DB699A4221D1FB6803F03F027B68A5
:101CD0001B6A9A421AD1FA6847F6C07313407A68B1
:101CE000526A9201934211D1FB6803F440327B683F
:101CF0009B6A5B08013B1B049A4207D1FB6803F017
:101D000070627B68DB6A1B069A4201D0012300E007
:101D1000002318461837BD4680BD00BF003802407A
:101D200080B584B000AF786039607B68002B01D14A
:101D30000123CCE0684B1B6803F007033A689A4222
:101D40000CD9654B3A68D2B21A70634B1B6803F02A
:101D500007033A689A4201D00123B8E07B681B6808
:101D600003F00203002B20D07B681B6803F0040300
:101D7000002B05D0594B9B68584A43F4E0539360BD
:101D80007B681B6803F00803002B05D0534B9B684E
:101D9000524A43F460439360504B9B6823F0F00237
:101DA0007B689B684D4913438B607B681B6803F01D
:101DB0000103002B44D07B685B68012B07D1474BA4
:101DC0001B6803F40033002B19D101237FE07B68EB
:101DD0005B68022B03D07B685B68032B07D13F4B0A
:101DE0001B6803F00073002B09D101236FE03B4B0C
:101DF0001B6803F00203002B01D1012367E0374B7E
:101E00009B6823F003027B685B68344913438B6053
:101E1000FFF75EFAF8600AE0FFF75AFA0246FB683D
:101E2000D31A41F28832934201D903234FE02B4B5E
:101E30009B6803F00C027B685B689B009A42EBD1C5
:101E4000254B1B6803F007033A689A420CD2224BD9
:101E50003A68D2B21A70204B1B6803F007033A6845
:101E60009A4201D0012332E07B681B6803F004032F
:101E7000002B08D0194B9B6823F4E0527B68DB6889
:101E8000164913438B607B681B6803F00803002B23
:101E900009D0124B9B6823F460427B681B69DB000E
:101EA0000E4913438B6000F021F802460B4B9B68F0
:101EB0001B0903F00F030A49CB5C22FA03F3094A1A
:101EC0001360094B1B681846FFF7EEF8002318460D
:101ED0001037BD4680BD00BF003C024000380240C4
:101EE000646F000800000020040000202DE9B04FBE
:101EF00090B000AF00237B630023FB6300233B63B0
:101F00000023BB63594B9B6803F00C03082B0DD0D7
:101F1000082B00F2A180002B02D0042B03D09BE001
:101F2000534BBB639BE0534BBB6398E04F4B5B68E9
:101F300003F03F037B634D4B5B6803F48003002B8E
:101F400028D04A4B5B689B0900223B627A623B6A5D
:101F5000C3F308000021474B03FB01F2002300FB01
:101F600003F31344434AA0FB0212FA620A46BA6220
:101F7000FA6A1344FB627B6B0022BB61FA61D7E90A
:101F80000623D7E90A01FEF72BF902460B46134652
:101F9000FB6353E0354B5B689B0900223B617A6130
:101FA0003B69C3F3080A4FF0000B52465B464FF003
:101FB00000004FF00001590141EAD2615001024690
:101FC0000B46B2EB0A0863EB0B094FF000024FF02F
:101FD00000034FEA891343EA98634FEA8812B2EB91
:101FE000080463EB09054FF000024FF00003EB001B
:101FF00043EA5473E20014461D4614EB0A033B60A7
:1020000045EB0B037B604FF000024FF00003D7E974
:10201000004529468B02214643EA915321468A0214
:10202000104619467B6B0022BB60FA60D7E9022399
:10203000FEF7D6F802460B461346FB630B4B5B6874
:102040001B0C03F0030301335B003B63FA6B3B6B38
:10205000B2FBF3F3BB6302E0054BBB6300BFBB6B9A
:1020600018464037BD46BDE8B08F00BF003802407B
:102070000024F40040787D0180B400AF034B1B685E
:102080001846BD465DF8047B704700BF0000002085
:1020900080B500AFFFF7F0FF0246054B9B689B0A37
:1020A00003F007030349CB5C22FA03F3184680BD13
:1020B00000380240746F000880B500AFFFF7DCFF06
:1020C0000246054B9B685B0B03F007030349CB5C9F
:1020D00022FA03F3184680BD00380240746F0008EE
:1020E00080B483B000AF786039607B680F221A60DB
:1020F000124B9B6803F003027B685A600F4B9B688E
:1021000003F0F0027B689A600C4B9B6803F4E0528A
:102110007B68DA60094B9B68DB0803F4E0527B685C
:102120001A61074B1B6803F007023B681A6000BF87
:102130000C37BD465DF8047B704700BF0038024095
:10214000003C024080B582B000AF78607B68002B15
:1021500001D1012341E07B6893F83D30DBB2002BD5
:1021600006D17B68002283F83C20786800F039F8BB
:102170007B68022283F83D207B681A687B68043301
:102180001946104600F0A8FC7B68012283F846201F
:102190007B68012283F83E207B68012283F83F2080
:1021A0007B68012283F840207B68012283F841206C
:1021B0007B68012283F842207B68012283F8432058
:1021C0007B68012283F844207B68012283F8452044
:1021D0007B68012283F83D20002318460837BD465E
:1021E00080BD80B483B000AF786000BF0C37BD46BF
:1021F0005DF8047B7047000080B485B000AF786064
:102200007B6893F83D30DBB2012B01D0012344E021
:102210007B68022283F83D207B681B68DA687B6854
:102220001B6842F00102DA607B681B681E4A934219
:1022300018D07B681B68B3F1804F13D07B681B6894
:102240001A4A93420ED07B681B68194A934209D000
:102250007B681B68174A934204D07B681B68164A48
:10226000934211D17B681B689B6803F00703FB60F6
:10227000FB68062B10D07B681B681A687B681B689C
:1022800042F001021A6007E07B681B681A687B68ED
:102290001B6842F001021A60002318461437BD463D
:1022A0005DF8047B704700BF00000140000400405F
:1022B00000080040000C00400040014080B582B0A2
:1022C00000AF78607B68002B01D1012341E07B687F
:1022D00093F83D30DBB2002B06D17B68002283F8F7
:1022E0003C207868FEF7F4FD7B68022283F83D20ED
:1022F0007B681A687B6804331946104600F0ECFBD3
:102300007B68012283F846207B68012283F83E2007
:102310007B68012283F83F207B68012283F84020FC
:102320007B68012283F841207B68012283F84220E8
:102330007B68012283F843207B68012283F84420D4
:102340007B68012283F845207B68012283F83D20C9
:10235000002318460837BD4680BD000080B584B014
:1023600000AF786039603B68002B09D17B6893F837
:102370003E30DBB2012B14BF01230023DBB222E08D
:102380003B68042B09D17B6893F83F30DBB2012B0B
:1023900014BF01230023DBB215E03B68082B09D1F1
:1023A0007B6893F84030DBB2012B14BF012300237C
:1023B000DBB208E07B6893F84130DBB2012B14BF3D
:1023C00001230023DBB2002B01D0012368E03B682E
:1023D000002B04D17B68022283F83E2013E03B6887
:1023E000042B04D17B68022283F83F200BE03B687A
:1023F000082B04D17B68022283F8402003E07B682D
:10240000022283F841207B681B6801223968184644
:1024100000F07AFD7B681B68234A934207D17B68F2
:102420001B685A6C7B681B6842F400425A647B68E4
:102430001B681D4A934218D07B681B68B3F1804F1C
:1024400013D07B681B68194A93420ED07B681B68C7
:10245000174A934209D07B681B68164A934204D0FE
:102460007B681B68144A934211D17B681B689B6888
:1024700003F00703FB60FB68062B10D07B681B682A
:102480001A687B681B6842F001021A6007E07B68EB
:102490001B681A687B681B6842F001021A600023FF
:1024A00018461037BD4680BD0000014000040040C2
:1024B00000080040000C00400040014080B586B09C
:1024C00000AF786039607B68002B01D1012397E071
:1024D0007B6893F83D30DBB2002B06D17B6800228D
:1024E00083F83C207868FEF715FD7B68022283F8AC
:1024F0003D207B681B689B687A68126823F48043E0
:1025000023F0070393607B681A687B6804331946DD
:10251000104600F0E1FA7B681B689B687B617B6872
:102520001B689B693B617B681B681B6AFB603B689F
:102530001B687A6913437B613B6923F4407323F082
:1025400003033B613B689A683B689B691B0213432A
:102550003A6913433B613B6923F4406323F00C0366
:102560003B613B6923F4704323F0F0033B613B681C
:10257000DA683B68DB691B0213433A6913433B612A
:102580003B681B691A013B681B6A1B0313433A69CA
:1025900013433B61FB6823F02203FB60FB6823F0DD
:1025A0008803FB603B685A683B685B691B01134307
:1025B000FA681343FB607B681B687A699A607B68E2
:1025C0001B683A699A617B681B68FA681A627B68C3
:1025D000012283F846207B68012283F83E207B6835
:1025E000012283F83F207B68012283F842207B6828
:1025F000012283F843207B68012283F83D200023D9
:1026000018461837BD4680BD80B584B000AF7860ED
:1026100039607B6893F83E30FB737B6893F83F30FA
:10262000BB737B6893F842307B737B6893F84330CD
:102630003B733B68002B10D1FB7B012B02D17B7BD2
:10264000012B01D0012369E07B68022283F83E2040
:102650007B68022283F8422031E03B68042B10D1D2
:10266000BB7B012B02D13B7B012B01D0012355E029
:102670007B68022283F83F207B68022283F8432094
:102680001DE0FB7B012B08D1BB7B012B05D17B7BA4
:10269000012B02D13B7B012B01D001233EE07B6863
:1026A000022283F83E207B68022283F83F207B6869
:1026B000022283F842207B68022283F843203B6891
:1026C000002B03D03B68042B08D00FE07B681B680D
:1026D00001220021184600F017FC16E07B681B68F9
:1026E00001220421184600F00FFC0EE07B681B68F5
:1026F00001220021184600F007FC7B681B680122BC
:102700000421184600F000FC00BF7B681B681A68B3
:102710007B681B6842F001021A60002318461037DC
:10272000BD4680BD80B584B000AF78607B681B6813
:10273000DB68FB607B681B681B69BB60BB6803F0E0
:102740000203002B20D0FB6803F00203002B1BD0F8
:102750007B681B686FF002021A617B6801221A779E
:102760007B681B689B6903F00303002B03D0786828
:1027700000F094F905E0786800F086F9786800F0D8
:1027800097F97B6800221A77BB6803F00403002BDB
:1027900020D0FB6803F00403002B1BD07B681B6870
:1027A0006FF004021A617B6802221A777B681B684B
:1027B0009B6903F44073002B03D0786800F06EF936
:1027C00005E0786800F060F9786800F071F97B68DE
:1027D00000221A77BB6803F00803002B20D0FB68A7
:1027E00003F00803002B1BD07B681B686FF0080206
:1027F0001A617B6804221A777B681B68DB6903F027
:102800000303002B03D0786800F048F905E07868EE
:1028100000F03AF9786800F04BF97B6800221A77EB
:10282000BB6803F01003002B20D0FB6803F01003FB
:10283000002B1BD07B681B686FF010021A617B684D
:1028400008221A777B681B68DB6903F44073002B4E
:1028500003D0786800F022F905E0786800F014F9F8
:10286000786800F025F97B6800221A77BB6803F0CE
:102870000103002B0CD0FB6803F00103002B07D0F1
:102880007B681B686FF001021A617868FEF7DEFA58
:10289000BB6803F08003002B0CD0FB6803F08003BF
:1028A000002B07D07B681B686FF080021A61786884
:1028B00000F01AFCBB6803F04003002B0CD0FB684F
:1028C00003F04003002B07D07B681B686FF04002C9
:1028D0001A61786800F0F6F8BB6803F02003002B5B
:1028E0000CD0FB6803F02003002B07D07B681B682B
:1028F0006FF020021A61786800F0ECFB00BF10371F
:10290000BD4680BD80B586B000AFF860B9607A6022
:102910000023FB75FB6893F83C30012B01D10223A7
:10292000AEE0FB68012283F83C207B680C2B00F2B0
:102930009F8001A252F823F06D290008712A000837
:10294000712A0008712A0008AD290008712A0008C0
:10295000712A0008712A0008EF290008712A00086E
:10296000712A0008712A00082F2A0008FB681B68DA
:10297000B968184600F03CF9FB681B689A69FB6867
:102980001B6842F008029A61FB681B689A69FB6841
:102990001B6822F004029A61FB681B689969BB6896
:1029A0001A69FB681B680A439A6164E0FB681B684C
:1029B000B968184600F082F9FB681B689A69FB68E1
:1029C0001B6842F400629A61FB681B689A69FB68A5
:1029D0001B6822F480629A61FB681B689969BB6876
:1029E0001B691A02FB681B680A439A6143E0FB6893
:1029F0001B68B968184600F0CDF9FB681B68DA69F6
:102A0000FB681B6842F00802DA61FB681B68DA6940
:102A1000FB681B6822F00402DA61FB681B68D96955
:102A2000BB681A69FB681B680A43DA6123E0FB682C
:102A30001B68B968184600F017FAFB681B68DA696A
:102A4000FB681B6842F40062DA61FB681B68DA69A4
:102A5000FB681B6822F48062DA61FB681B68D96935
:102A6000BB681B691A02FB681B680A43DA6102E053
:102A70000123FB7500BFFB68002283F83C20FB7D2F
:102A800018461837BD4680BD80B483B000AF78606B
:102A900000BF0C37BD465DF8047B704780B483B03F
:102AA00000AF786000BF0C37BD465DF8047B70470F
:102AB00080B483B000AF786000BF0C37BD465DF8CE
:102AC000047B704780B483B000AF786000BF0C37E0
:102AD000BD465DF8047B704780B485B000AF786078
:102AE00039607B681B68FB607B683A4A93420FD071
:102AF0007B68B3F1804F0BD07B68374A934207D095
:102B00007B68364A934203D07B68354A934208D1AA
:102B1000FB6823F07003FB603B685B68FA68134353
:102B2000FB607B682B4A93421BD07B68B3F1804FDC
:102B300017D07B68284A934213D07B68274A934278
:102B40000FD07B68264A93420BD07B68254A93427C
:102B500007D07B68244A934203D07B68234A934280
:102B600008D1FB6823F44073FB603B68DB68FA68BC
:102B70001343FB60FB6823F080023B685B691343EF
:102B8000FB607B68FA681A603B689A687B68DA6267
:102B90003B681A687B689A627B680E4A934203D14D
:102BA0003B681A697B681A637B6801225A617B68FB
:102BB0001B6903F00103012B05D17B681B6923F01E
:102BC00001027B681A6100BF1437BD465DF8047BC3
:102BD000704700BF000001400004004000080040B2
:102BE000000C00400040014000440140004801400A
:102BF00080B487B000AF786039607B681B6A7B6106
:102C00007B681B6A23F001027B681A627B685B6841
:102C10003B617B689B69FB60FB6823F07003FB6092
:102C2000FB6823F00303FB603B681B68FA681343EF
:102C3000FB607B6923F002037B613B689B687A69D8
:102C400013437B617B681C4A93420CD17B6923F060
:102C500008037B613B68DB687A6913437B617B69AE
:102C600023F004037B617B68134A934211D13B69D3
:102C700023F480733B613B6923F400733B613B6841
:102C80005B693A6913433B613B689B693A6913434B
:102C90003B617B683A695A607B68FA689A613B6875
:102CA0005A687B685A637B687A691A6200BF1C376E
:102CB000BD465DF8047B70470000014080B487B0DA
:102CC00000AF786039607B681B6A7B617B681B6A38
:102CD00023F010027B681A627B685B683B617B684B
:102CE0009B69FB60FB6823F4E043FB60FB6823F413
:102CF0004073FB603B681B681B02FA681343FB6070
:102D00007B6923F020037B613B689B681B017A6928
:102D100013437B617B681E4A93420DD17B6923F08C
:102D200080037B613B68DB681B017A6913437B612D
:102D30007B6923F040037B617B68154A934213D182
:102D40003B6923F480633B613B6923F400633B618F
:102D50003B685B699B003A6913433B613B689B6935
:102D60009B003A6913433B617B683A695A607B6810
:102D7000FA689A613B685A687B689A637B687A69EB
:102D80001A6200BF1C37BD465DF8047B704700BF68
:102D90000000014080B487B000AF786039607B6884
:102DA0001B6A7B617B681B6A23F480727B681A62F2
:102DB0007B685B683B617B68DB69FB60FB6823F0D9
:102DC0007003FB60FB6823F00303FB603B681B6838
:102DD000FA681343FB607B6923F400737B613B68F3
:102DE0009B681B027A6913437B617B681D4A93428F
:102DF0000DD17B6923F400637B613B68DB681B02B8
:102E00007A6913437B617B6923F480637B617B6810
:102E1000144A934213D13B6923F480533B613B69CD
:102E200023F400533B613B685B691B013A69134320
:102E30003B613B689B691B013A6913433B617B68BB
:102E40003A695A607B68FA68DA613B685A687B685D
:102E5000DA637B687A691A6200BF1C37BD465DF889
:102E6000047B70470000014080B487B000AF7860F9
:102E700039607B681B6A3B617B681B6A23F4805264
:102E80007B681A627B685B687B617B68DB69FB60DF
:102E9000FB6823F4E043FB60FB6823F44073FB60B2
:102EA0003B681B681B02FA681343FB603B6923F411
:102EB00000533B613B689B681B033A6913433B61CA
:102EC0007B68104A934209D17B6923F480437B617C
:102ED0003B685B699B017A6913437B617B687A6914
:102EE0005A607B68FA68DA613B685A687B681A64E2
:102EF0007B683A691A6200BF1C37BD465DF8047BE7
:102F0000704700BF0000014080B487B000AFF86098
:102F1000B9607A60BB6803F01F03012202FA03F371
:102F20007B61FB681A6A7B69DB431A40FB681A62A3
:102F3000FB681A6ABB6803F01F03796801FA03F3A0
:102F40001A43FB681A6200BF1C37BD465DF8047B5C
:102F50007047000080B485B000AF786039607B684E
:102F600093F83C30012B01D1022350E07B68012211
:102F700083F83C207B68022283F83D207B681B6835
:102F80005B68FB607B681B689B68BB60FB6823F029
:102F90007003FB603B681B68FA681343FB607B6847
:102FA0001B68FA685A607B681B681C4A934218D0F9
:102FB0007B681B68B3F1804F13D07B681B68184A8D
:102FC00093420ED07B681B68164A934209D07B68F7
:102FD0001B68154A934204D07B681B68134A9342CE
:102FE0000CD1BB6823F08003BB603B685B68BA68A8
:102FF0001343BB607B681B68BA689A607B680122D8
:1030000083F83D207B68002283F83C20002318468B
:103010001437BD465DF8047B704700BF00000140D7
:103020000004004000080040000C00400040014047
:1030300080B485B000AF786039600023FB607B68A6
:1030400093F83C30012B01D102233DE07B68012243
:1030500083F83C20FB6823F0FF023B68DB681343E6
:10306000FB60FB6823F440723B689B681343FB6082
:10307000FB6823F480623B685B681343FB60FB687A
:1030800023F400623B681B681343FB60FB6823F476
:1030900080523B681B691343FB60FB6823F40052BA
:1030A0003B685B691343FB60FB6823F480423B6829
:1030B000DB691343FB607B681B68FA685A647B68B2
:1030C000002283F83C20002318461437BD465DF8E3
:1030D000047B704780B483B000AF786000BF0C37CA
:1030E000BD465DF8047B704780B483B000AF786064
:1030F00000BF0C37BD465DF8047B704780B582B0D9
:1031000000AF78607B68002B01D1012342E07B682F
:1031100093F84130DBB2002B06D17B68002283F8A4
:1031200040207868FDF778FF7B68242283F84120EF
:103130007B681B68DA687B681B6822F40052DA60DF
:10314000786800F07FF97B681B681A697B681B68E8
:1031500022F490421A617B681B685A697B681B687D
:1031600022F02A025A617B681B68DA687B681B6858
:1031700042F40052DA607B6800225A647B682022A5
:1031800083F841207B68202283F842207B6800225C
:103190005A63002318460837BD4680BD80B58AB003
:1031A00002AFF860B9603B601346FB8000237B618F
:1031B000FB6893F84230DBB2202B40F08180BB6883
:1031C000002B02D0FB88002B01D1012379E0FB68A2
:1031D00000225A64FB68222283F84220FB68002206
:1031E0001A63FEF775F87861FB68FA889A85FB68C0
:1031F000FA88DA85FB689B68B3F5805F08D1FB68C5
:103200001B69002B04D10023FB61BB68BB6103E099
:10321000BB68FB610023BB6147E03B6800937B69AF
:1032200000222021F86800F050F80346002B05D05A
:10323000FB68202283F84220032342E0FB69002B35
:103240000CD1FB681B685B689BB2C3F308039AB29E
:10325000BB691A80BB690233BB611FE0FB689B68D6
:10326000B3F5805F07D0FB689B68002B0AD1FB6831
:103270001B69002B06D1FB681B685B68DAB2FB692F
:103280001A7008E0FB681B685B68DBB203F07F0321
:10329000DAB2FB691A70FB690133FB61FB68DB8DF5
:1032A0009BB2013B9AB2FB68DA85FB68DB8D9BB26F
:1032B000002BB2D1FB68202283F84220002300E0DB
:1032C000022318462037BD4680BD80B586B000AFCA
:1032D000F860B9603B601346FB713BE03B6AB3F1B9
:1032E000FF3F37D0FDF7F4FF02463B68D31A3A6A36
:1032F0009A4202D33B6A002B01D103233AE0FB68D8
:103300001B68DB6803F00403002B23D0BB68802B11
:1033100020D0BB68402B1DD0FB681B681B6803F0E6
:103320000803082B16D100237B61FB681B681B6810
:103330007B61FB681B685B687B617B69F86800F0F8
:103340001DF8FB6808225A64FB68002283F84020BD
:1033500001230FE0FB681B681A68BB681340BA685A
:103360009A420CBF01230023DBB21A46FB799A4232
:10337000B4D0002318461837BD4680BD80B495B040
:1033800000AF78607B681B680C337B637B6B53E812
:10339000003F3B633B6B23F49073FB647B681B68CB
:1033A0000C33FA6C3A64FB63F96B3A6C41E8002326
:1033B000BB63BB6B002BE5D17B681B6814333B629E
:1033C0003B6A53E8003FFB61FB6923F00103BB64E8
:1033D0007B681B681433BA6CFA62BB62B96AFA6A1A
:1033E00041E800237B627B6A002BE5D17B681B6B85
:1033F000012B19D17B681B680C33FB60FB6853E819
:10340000003FBB60BB6823F010037B647B681B68D4
:103410000C337A6CBA617B617969BA6941E800233F
:103420003B613B69002BE5D17B68202283F8422079
:103430007B6800221A6300BF5437BD465DF8047BE9
:10344000704700002DE9B04FC0B000AFC7F8F400DE
:10345000D7F8F4301B681B6923F44050D7F8F430D8
:10346000D968D7F8F4301A6840EA01031361D7F835
:10347000F4309A68D7F8F4301B691A43D7F8F4305F
:103480005B691A43D7F8F430DB691343C7F8F830A7
:10349000D7F8F4301B68DB6823F4164121F00C01E7
:1034A000D7F8F4301A68D7F8F8300B43D360D7F860
:1034B000F4301B685B6923F44070D7F8F4309969E5
:1034C000D7F8F4301A6840EA01035361D7F8F430B2
:1034D0001A688F4B9A4205D0D7F8F4301A688D4B92
:1034E0009A4204D1FEF7E8FDC7F8FC0003E0FEF7BE
:1034F000CFFDC7F8FC00D7F8F430DB69B3F5004F17
:1035000040F00C81D7F8FC300022C7F8E830C7F84B
:10351000EC20D7E93A4522462B469118B9655B4124
:10352000FB65D7E91623214612EB0108294643EB38
:1035300001094FF000024FF000034FEAC90343EACC
:1035400058734FEAC80290469946234618EB030386
:10355000C7F8E0302B4649EB0303C7F8E430D7F84F
:10356000F4305B680022C7F8D830C7F8DC20D7E910
:1035700036120B46DB183B65134642EB03037B65B3
:10358000D7E91423D7E93801FCF72AFE02460B4697
:10359000614BA3FB02235B091C01D7F8FC3000221E
:1035A000C7F8D030C7F8D420D7E9348942464B4613
:1035B0009118B9645B41FB64D7E91223414612EBD1
:1035C000010A494643EB010B4FF000024FF00003A4
:1035D0004FEACB0343EA5A734FEACA0292469B462C
:1035E00043461AEB0303C7F8C8304B464BEB0303C3
:1035F000C7F8CC30D7F8F4305B680022C7F8C03089
:10360000C7F8C420D7E930120B46DB183B641346D9
:1036100042EB03037B64D7E91023D7E93201FCF7BF
:10362000DFFD02460B4611463B4BA3FB01235B0922
:10363000642202FB03F3CB1ADB0003F13202364BA8
:10364000A3FB02235B095B0003F4F8731C44D7F867
:10365000FC300022C7F8B830C7F8BC20D7E92E8963
:1036600042464B469118B9635B41FB63D7E90E2391
:1036700041465118396349464B417B634FF0000284
:103680004FF00003D7E90CAB5946CB00514643EA53
:1036900051735146CA0010461946034642469B18CC
:1036A000C7F8B0304B460A4642EB0303C7F8B430C4
:1036B000D7F8F4305B680022C7F8A830C7F8AC2010
:1036C000D7E92A120B46DB18BB62134642EB030311
:1036D000FB62D7E90A23D7E92C01FCF781FD0246FA
:1036E0000B460D4BA3FB02135B09642101FB03F3A3
:1036F000D31ADB003233084AA2FB03235B0903F031
:103700000702D7F8F4301B6822449A6006E100BF34
:1037100000100140001401401F85EB51D7F8FC3028
:103720000022C7F8A030C7F8A420D7E9288942466C
:103730004B46911839625B417B62D7E908234146C9
:103740005418494643EB01054FF000024FF00003C7
:10375000EB0043EA5473E20014461D464346E31867
:10376000C7F898304B4645EB0303C7F89C30D7F8B1
:10377000F4305B680022C7F89030C7F894204FF00F
:1037800000024FF00003D7E9244529468B0021466B
:1037900043EA917321468A00D7E92601FCF720FD10
:1037A00002460B46604BA3FB02235B091C01D7F8C2
:1037B000FC300022C7F88830C7F88C20D7E922896E
:1037C00042464B469118B9615B41FB61D7E906233C
:1037D00041465118396149464B417B614FF0000227
:1037E0004FF00003D7E904AB5946CB00514643EAFA
:1037F00051735146CA0010461946034642469B186B
:10380000C7F880304B460A4642EB0303C7F88430C2
:10381000D7F8F4305B680022BB67FA674FF000020C
:103820004FF00003D7E91E8949468B00414643EA21
:10383000917341468A00D7E92001FCF7D1FC02468A
:103840000B461146384BA3FB01235B09642202FBA4
:1038500003F3CB1A1B013233334AA2FB03235B0968
:1038600003F0F0031C44D7F8FC3000223B677A6772
:10387000D7E91C8942464B469118B9605B41FB6011
:10388000D7E9022341465118396049464B417B60D4
:103890004FF000024FF00003D7E900AB5946CB00D0
:1038A000514643EA51735146CA0010461946034631
:1038B00042469B18BB664B460A4642EB0303FB6637
:1038C000D7F8F4305B6800223B667A664FF000025E
:1038D0004FF00003D7E9188949468B00414643EA77
:1038E000917341468A00D7E91A01FCF779FC024638
:1038F0000B460D4BA3FB02135B09642101FB03F391
:10390000D31A1B013233084AA2FB03235B0903F0DD
:103910000F02D7F8F4301B6822449A6000BF07F505
:103920008077BD46BDE8B08F1F85EB5180B483B072
:1039300000AF03463960FB7197F90730002B0ADBB3
:103940003B68DAB20C4997F907301201D2B20B4446
:1039500083F800230AE03B68DAB20849FB7903F0F8
:103960000F03043B1201D2B20B441A7600BF0C378E
:10397000BD465DF8047B704700E100E000ED00E02B
:1039800080B500AF054B1B6801F0EEFF0346012B2D
:1039900001D002F0E9FE00BF80BD00BF10E000E0F2
:1039A00080B500AF00216FF00400FFF7BFFF00BF3C
:1039B00080BD000080B483B000AFEFF305833B60AF
:1039C0003B68002B03D06FF005037B600CE00A4BD3
:1039D0001B68002B05D1084B01221A6000237B6075
:1039E00002E04FF0FF337B607B6818460C37BD4622
:1039F0005DF8047B704700BF2402002080B582B0D0
:103A000000AFEFF305833B603B68002B03D06FF002
:103A100005037B6010E00B4B1B68012B09D1FFF7FE
:103A2000BFFF084B02221A6001F03AFB00237B60C3
:103A300002E04FF0FF337B607B6818460837BD46D5
:103A400080BD00BF2402002080B58EB004AFF860B6
:103A5000B9607A6000233B61EFF305837B617B698A
:103A6000002B7ED1FB68002B7BD080233B62182388
:103A7000FB6100237B624FF0FF33BB617B68002B4F
:103A800045D07B681B68002B02D07B681B687B627B
:103A90007B689B69002B02D07B689B69FB61FB699B
:103AA000002B08D0FB69382B05D87B685B6803F0D6
:103AB0000103002B01D0002354E07B685B69002BDD
:103AC00003D07B685B699B083B627B689B68002B2B
:103AD0000ED07B68DB68A72B0AD97B681B69002B9B
:103AE00006D07B685B69002B02D00123BB6110E02C
:103AF0007B689B68002B0CD17B68DB68002B08D1AE
:103B00007B681B69002B04D10023BB6101E000230B
:103B1000BB61BB69012B10D17B681B697A68926815
:103B200002920193FB690093BB683A6A796AF8686C
:103B300001F0C2F803463B6113E0BB69002B10D1D2
:103B40003B6A9AB207F110030193FB690093BB68CB
:103B5000796AF86801F010F90346012B01D00023BF
:103B60003B613B6918462837BD4680BD80B584B0AF
:103B700000AF7860EFF30583BB60BB68002B03D018
:103B80006FF00503FB6007E00023FB607B68002B00
:103B900002D0786801F04EFAFB6818461037BD462F
:103BA00080BD80B58AB002AFF860B9607A6000234A
:103BB000FB61EFF305833B613B69002B75D1FB682B
:103BC000002B72D0BA68FB689A426ED84FF0FF3370
:103BD000BB617B68002B15D07B689B68002B06D0EF
:103BE0007B68DB684F2B02D90123BB610CE07B684B
:103BF0009B68002B08D17B68DB68002B04D1002375
:103C0000BB6101E00023BB61BB69B3F1FF3F4CD056
:103C1000FB68012B28D1BB69012B0AD17B689B680B
:103C20000322009200220021012000F095F9F861A2
:103C300005E003220021012000F00BFAF861FB6986
:103C4000002B22D0BB68002B1FD0002300220021B4
:103C5000F86900F0CBFA0346012B16D0F86900F0A2
:103C600057FE0023FB6110E0BB69012B08D17B6884
:103C70009B681A46B968F86800F049FAF86104E0F0
:103C8000B968F86800F07CFAF861FB69002B0CD089
:103C90007B68002B03D07B681B687B6101E00023FD
:103CA0007B617969F86900F07FFFFB69184620376E
:103CB000BD4680BD80B485B000AFF860B9607A6061
:103CC000FB68074A1A60BB68064A1A607B68802254
:103CD0001A6000BF1437BD465DF8047B704700BF13
:103CE00028020020D002002080B485B000AFF86028
:103CF000B9607A60FB68074A1A60BB68064A1A60B6
:103D00007B684FF480721A6000BF1437BD465DF8BF
:103D1000047B7047D00400207805002080B483B075
:103D200000AF78607B6803F108027B685A607B68AB
:103D30004FF0FF329A607B6803F108027B68DA601B
:103D40007B6803F108027B681A617B6800221A60B5
:103D500000BF0C37BD465DF8047B704780B483B06C
:103D600000AF78607B6800221A6100BF0C37BD4647
:103D70005DF8047B704780B485B000AF786039602F
:103D80007B685B68FB603B68FA685A60FB689A680E
:103D90003B689A60FB689B683A685A60FB683A68BF
:103DA0009A603B687A681A617B681B685A1C7B685A
:103DB0001A6000BF1437BD465DF8047B704780B4BD
:103DC00085B000AF786039603B681B68BB60BB683A
:103DD000B3F1FF3F03D17B681B69FB600CE07B689C
:103DE0000833FB6002E0FB685B68FB60FB685B68B4
:103DF0001B68BA689A42F6D2FB685A683B685A60F8
:103E00003B685B683A689A603B68FA689A60FB684E
:103E10003A685A603B687A681A617B681B685A1C6A
:103E20007B681A6000BF1437BD465DF8047B70479D
:103E300080B485B000AF78607B681B69FB607B68ED
:103E40005B687A6892689A607B689B687A68526857
:103E50005A60FB685B687A689A4203D17B689A680B
:103E6000FB685A607B6800221A61FB681B685A1E57
:103E7000FB681A60FB681B6818461437BD465DF87E
:103E8000047B704780B584B000AF786039607B6890
:103E9000FB60FB68002B0BD14FF0500383F31188BC
:103EA000BFF36F8FBFF34F8FBB6000BF00BFFDE755
:103EB00002F0CAFBFB681A68FB68DB6BF968096CE7
:103EC00001FB03F31A44FB689A60FB6800229A63C3
:103ED000FB681A68FB685A60FB681A68FB68DB6B52
:103EE000013BF968096C01FB03F31A44FB68DA60D3
:103EF000FB68FF2283F84420FB68FF2283F84520FB
:103F00003B68002B14D1FB681B69002B1AD0FB689F
:103F10001033184601F062FB0346002B12D00D4B04
:103F20004FF080521A60BFF34F8FBFF36F8F09E0DD
:103F3000FB6810331846FFF7F1FEFB682433184680
:103F4000FFF7ECFE02F0B2FB012318461037BD4626
:103F500080BD00BF04ED00E080B58EB002AFF86018
:103F6000B9607A603B60FB68002B0BD14FF05003C7
:103F700083F31188BFF36F8FBFF34F8FBB6200BF16
:103F800000BFFDE73B68002B0BD14FF0500383F3DC
:103F90001188BFF36F8FBFF34F8F7B6200BF00BFED
:103FA000FDE77B68002B02D0BB68002B01D001230A
:103FB00000E00023002B0BD14FF0500383F3118856
:103FC000BFF36F8FBFF34F8F3B6200BF00BFFDE7B2
:103FD0007B68002B02D1BB68002B01D1012300E0DC
:103FE0000023002B0BD14FF0500383F31188BFF354
:103FF0006F8FBFF34F8FFB6100BF00BFFDE7502302
:104000007B617B69502B0BD04FF0500383F31188F9
:10401000BFF36F8FBFF34F8FBB6100BF00BFFDE7E2
:104020007B693B68FB62FB6A002B0DD0FB6A0122B7
:1040300083F8462097F83820FB6A009313467A6885
:10404000B968F86800F040F8FB6A18463037BD469A
:1040500080BD80B58AB002AFF860B9601346FB71CD
:10406000FB68002B0BD14FF0500383F31188BFF393
:104070006F8FBFF34F8F3B6100BF00BFFDE7FB6851
:10408000BA6802FB03F3FB61FB695033184602F088
:10409000FDFBB861BB69002B11D0BB697B617B69FB
:1040A00050337B61BB69002283F84620FA79BB69F3
:1040B000009313467A69B968F86800F005F8BB699F
:1040C00018462037BD4680BD80B584B000AFF8608B
:1040D000B9607A60FB70BB68002B03D1BB69BA6919
:1040E0001A6002E0BB697A681A60BB69FA68DA6331
:1040F000BB69BA681A640121B869FFF7C3FEBB69DE
:10410000FA7883F84C2000BF1037BD4680BD80B5DB
:104110008AB002AFF860B9607A60FB68002B0BD1FF
:104120004FF0500383F31188BFF36F8FBFF34F8FAE
:10413000BB6100BF00BFFDE7BA68FB689A420BD9BC
:104140004FF0500383F31188BFF36F8FBFF34F8F8E
:104150007B6100BF00BFFDE7022300937B68002264
:104160000021F868FFF7F8FEF861FB69002B02D028
:10417000FB69BA689A63FB6918462037BD4680BD63
:1041800080B586B000AF786039607B68002B0BD1BA
:104190004FF0500383F31188BFF36F8FBFF34F8F3E
:1041A0003B6100BF00BFFDE73A687B689A420BD9CC
:1041B0004FF0500383F31188BFF36F8FBFF34F8F1E
:1041C000FB6000BF00BFFDE7022200217868FFF717
:1041D00040FF78617B69002B02D07B693A689A6363
:1041E0007B6918461837BD4680BD000080B58EB08B
:1041F00000AFF860B9607A603B6000237B63FB68C6
:104200003B633B6B002B0BD14FF0500383F31188C2
:10421000BFF36F8FBFF34F8FBB6200BF00BFFDE7DF
:10422000BB68002B03D13B6B1B6C002B01D101231E
:1042300000E00023002B0BD14FF0500383F31188D3
:10424000BFF36F8FBFF34F8F7B6200BF00BFFDE7EF
:104250003B68022B03D13B6BDB6B012B01D10123AC
:1042600000E00023002B0BD14FF0500383F31188A3
:10427000BFF36F8FBFF34F8F3B6200BF00BFFDE7FF
:1042800001F072FB0346002B02D17B68002B01D1A9
:10429000012300E00023002B0BD14FF0500383F3E8
:1042A0001188BFF36F8FBFF34F8FFB6100BF00BF5B
:1042B000FDE702F0C9F93B6B9A6B3B6BDB6B9A42F3
:1042C00002D33B68022B29D13A68B968386B00F0F9
:1042D0005BFBF8623B6B5B6A002B10D03B6B2433BB
:1042E000184601F07BF90346002B13D03F4B4FF0EB
:1042F00080521A60BFF34F8FBFF36F8F0AE0FB6AE3
:10430000002B07D0394B4FF080521A60BFF34F8F0C
:10431000BFF36F8F02F0CAF9012363E07B68002BC3
:1043200003D102F0C3F900235CE07B6B002B06D1C4
:1043300007F11403184601F0B5F901237B6302F07D
:10434000B5F900F01DFF02F07FF93B6B93F84430A4
:104350005BB2B3F1FF3F03D13B6B002283F84420F3
:104360003B6B93F845305BB2B3F1FF3F03D13B6B3E
:10437000002283F8452002F099F93A1D07F1140351
:104380001146184601F0A4F90346002B24D1386BDE
:1043900000F0F2FB0346002B18D03B6B10337A6819
:1043A0001146184601F0C8F8386B00F07DFB00F0AC
:1043B000F5FE0346002B7FF47CAF0C4B4FF0805290
:1043C0001A60BFF34F8FBFF36F8F72E7386B00F047
:1043D0006BFB00F0E3FE6CE7386B00F065FB00F070
:1043E000DDFE002318463837BD4680BD04ED00E0F1
:1043F00080B590B000AFF860B9607A603B60FB6850
:10440000BB63BB6B002B0BD14FF0500383F31188C0
:10441000BFF36F8FBFF34F8FBB6200BF00BFFDE7DD
:10442000BB68002B03D1BB6B1B6C002B01D101239C
:1044300000E00023002B0BD14FF0500383F31188D1
:10444000BFF36F8FBFF34F8F7B6200BF00BFFDE7ED
:104450003B68022B03D1BB6BDB6B012B01D101232A
:1044600000E00023002B0BD14FF0500383F31188A1
:10447000BFF36F8FBFF34F8F3B6200BF00BFFDE7FD
:1044800002F0C2F9EFF311824FF0500383F3118869
:10449000BFF36F8FBFF34F8FFA61BB61FB697B6323
:1044A000BB6B9A6BBB6BDB6B9A4202D33B68022BF4
:1044B0002FD1BB6B93F8453087F83330BB6B9B6BC8
:1044C000FB623A68B968B86B00F05EFA97F933306E
:1044D000B3F1FF3F12D1BB6B5B6A002B16D0BB6BF5
:1044E0002433184601F07AF80346002B0ED07B687F
:1044F000002B0BD07B6801221A6007E097F833305D
:104500000133DBB25AB2BB6B83F845200123FB6356
:1045100001E00023FB637B6B7B617B6983F3118884
:1045200000BFFB6B18464037BD4680BD80B58CB0E0
:1045300000AFF860B9607A600023FB62FB68BB6281
:10454000BB6A002B0BD14FF0500383F31188BFF3EC
:104550006F8FBFF34F8F3B6200BF00BFFDE7BB68AB
:10456000002B03D1BB6A1B6C002B01D1012300E09F
:104570000023002B0BD14FF0500383F31188BFF3BE
:104580006F8FBFF34F8FFB6100BF00BFFDE701F0EE
:10459000EBF90346002B02D17B68002B01D10123EC
:1045A00000E00023002B0BD14FF0500383F3118860
:1045B000BFF36F8FBFF34F8FBB6100BF00BFFDE73D
:1045C00002F042F8BB6A9B6B7B627B6A002B1FD0B8
:1045D000B968B86A00F042FA7B6A5A1EBB6A9A63ED
:1045E000BB6A1B69002B0FD0BB6A1033184600F062
:1045F000F5FF0346002B07D03C4B4FF080521A606A
:10460000BFF34F8FBFF36F8F02F050F8012369E0C3
:104610007B68002B03D102F049F8002362E0FB6ABB
:10462000002B06D107F11003184601F03BF80123D7
:10463000FB6202F03BF800F0A3FD02F005F8BB6A54
:1046400093F844305BB2B3F1FF3F03D1BB6A002261
:1046500083F84420BB6A93F845305BB2B3F1FF3F67
:1046600003D1BB6A002283F8452002F01FF83A1DEF
:1046700007F110031146184601F02AF80346002BF3
:1046800023D1B86A00F062FA0346002B17D0BB6A48
:1046900024337A681146184600F04EFFB86A00F0DD
:1046A00003FA00F07BFD0346002B89D10F4B4FF03E
:1046B00080521A60BFF34F8FBFF36F8F80E7B86AE5
:1046C00000F0F2F900F06AFD7AE7B86A00F0ECF960
:1046D00000F064FDB86A00F039FA0346002B3FF49D
:1046E0006FAF002318463037BD4680BD04ED00E0B3
:1046F00080B58EB000AF7860396000237B637B6843
:10470000FB6200233B63FB6A002B0BD14FF050038D
:1047100083F31188BFF36F8FBFF34F8F3B6200BFEE
:1047200000BFFDE7FB6A1B6C002B0BD04FF0500362
:1047300083F31188BFF36F8FBFF34F8FFB6100BF0F
:1047400000BFFDE701F010F90346002B02D13B68E2
:10475000002B01D1012300E00023002B0BD14FF0EF
:10476000500383F31188BFF36F8FBFF34F8FBB618B
:1047700000BF00BFFDE701F067FFFB6A9B6BBB62F8
:10478000BB6A002B24D0BB6A5A1EFB6A9A63FB6A81
:104790001B68002B04D101F061FA0246FB6A9A60A3
:1047A000FB6A1B69002B0FD0FB6A1033184600F020
:1047B00015FF0346002B07D0544B4FF080521A6070
:1047C000BFF34F8FBFF36F8F01F070FF012398E0AD
:1047D0003B68002B12D13B6B002B0BD04FF05003EA
:1047E00083F31188BFF36F8FBFF34F8F7B6100BFDF
:1047F00000BFFDE701F05AFF002382E07B6B002B36
:1048000006D107F10C03184600F04CFF01237B632F
:1048100001F04CFF00F0B4FC01F016FFFB6A93F8C6
:1048200044305BB2B3F1FF3F03D1FB6A002283F84F
:104830004420FB6A93F845305BB2B3F1FF3F03D1EC
:10484000FB6A002283F8452001F030FF3A4607F169
:104850000C031146184600F03BFF0346002B32D1F3
:10486000F86A00F073F90346002B26D0FB6A1B6838
:10487000002B09D101F0E8FEFB6A9B68184601F0A5
:1048800091F8386301F012FFFB6A24333A6811464D
:10489000184600F051FEF86A00F006F900F07EFCC0
:1048A0000346002B7FF467AF184B4FF080521A601D
:1048B000BFF34F8FBFF36F8F5DE7F86A00F0F4F836
:1048C00000F06CFC57E7F86A00F0EEF800F066FCC8
:1048D000F86A00F03BF90346002B3FF44CAF3B6B0A
:1048E000002B0DD001F0B0FEF86A00F035F87862C8
:1048F000FB6A9B68796A184601F02CF901F0D6FE34
:10490000002318463837BD4680BD00BF04ED00E0E7
:1049100080B584B000AF78607B68FB60FB68002BDB
:104920000BD14FF0500383F31188BFF36F8FBFF3A8
:104930004F8FBB6000BF00BFFDE7F86800F05EF975
:10494000FB6893F84630002B02D1F86802F06CF84F
:1049500000BF1037BD4680BD80B485B000AF786021
:104960007B685B6A002B06D07B681B6B1B68C3F1FE
:104970003803FB6001E00023FB60FB681846143736
:10498000BD465DF8047B704780B586B000AFF86027
:10499000B9607A6000237B61FB689B6B3B61FB68BD
:1049A0001B6C002B0DD1FB681B68002B4DD1FB68E5
:1049B0009B68184601F05EF87861FB6800229A60F7
:1049C00043E07B68002B19D1FB685868FB681B6CBF
:1049D0001A46B96802F0CCF9FB685A68FB681B6C90
:1049E0001A44FB685A60FB685A68FB689B689A42E5
:1049F0002BD3FB681A68FB685A6026E0FB68D8680E
:104A0000FB681B6C1A46B96802F0B2F9FB68DA68F9
:104A1000FB681B6C5B421A44FB68DA60FB68DA686F
:104A2000FB681B689A4207D2FB689A68FB681B6C9C
:104A30005B421A44FB68DA607B68022B05D13B6954
:104A4000002B02D03B69013B3B613B695A1CFB6870
:104A50009A637B6918461837BD4680BD80B582B021
:104A600000AF786039607B681B6C002B18D07B68C6
:104A7000DA687B681B6C1A447B68DA607B68DA68EA
:104A80007B689B689A4203D37B681A687B68DA600C
:104A90007B68D9687B681B6C1A46386802F068F935
:104AA00000BF0837BD4680BD80B584B000AF7860D8
:104AB00001F0CAFD7B6893F84530FB7311E07B6819
:104AC0005B6A002B12D07B682433184600F086FD09
:104AD0000346002B01D000F05FFEFB7B013BDBB205
:104AE000FB7397F90F30002BE9DC00E000BF7B6817
:104AF000FF2283F8452001F0D9FD01F0A5FD7B6878
:104B000093F84430BB7311E07B681B69002B12D013
:104B10007B681033184600F061FD0346002B01D07E
:104B200000F03AFEBB7B013BDBB2BB7397F90E3062
:104B3000002BE9DC00E000BF7B68FF2283F8442003
:104B400001F0B4FD00BF1037BD4680BD80B584B014
:104B500000AF786001F078FD7B689B6B002B02D181
:104B60000123FB6001E00023FB6001F09FFDFB6877
:104B700018461037BD4680BD80B584B000AF786060
:104B800001F062FD7B689A6B7B68DB6B9A4202D115
:104B90000123FB6001E00023FB6001F087FDFB685F
:104BA00018461037BD4680BD80B485B000AF786030
:104BB00039600023FB6014E00F4AFB6852F8333081
:104BC000002B0BD10C49FB683A6841F833200A4AA4
:104BD000FB68DB0013447A685A6006E0FB68013327
:104BE000FB60FB68072BE7D900BF00BF1437BD4649
:104BF0005DF8047B704700BF7809002080B485B061
:104C000000AF78600023FB6016E0104AFB68DB0011
:104C100013445B687A689A420BD10C4AFB68002106
:104C200042F83310094AFB68DB00134400225A6043
:104C300006E0FB680133FB60FB68072BE5D900BF8A
:104C400000BF1437BD465DF8047B7047780900202B
:104C500080B586B000AFF860B9607A60FB687B61B0
:104C600001F0F2FC7B6993F844305BB2B3F1FF3F93
:104C700003D17B69002283F844207B6993F8453097
:104C80005BB2B3F1FF3F03D17B69002283F845207B
:104C900001F00CFD7B699B6B002B06D17B692433F3
:104CA0007A68B968184600F06DFC7869FFF7FCFE79
:104CB00000BF1837BD4680BD80B58EB004AFF86028
:104CC000B9607A603B607B6B002B0BD14FF05003D7
:104CD00083F31188BFF36F8FBFF34F8F3B6200BF29
:104CE00000BFFDE7BB6B002B0BD14FF0500383F3EC
:104CF0001188BFF36F8FBFF34F8FFB6100BF00BF01
:104D0000FDE7A8233B613B69A82B0BD04FF0500374
:104D100083F31188BFF36F8FBFF34F8FBB6100BF69
:104D200000BFFDE73B69BB6B002B1ED07B6B002BEC
:104D30001BD0BB6B7B627B6A7A6B1A637B6A022235
:104D400083F8A520002303937B6A029307F11403E1
:104D500001933B6B00933B687A68B968F86800F090
:104D600051F8786A00F0F6F801E000237B617B6976
:104D700018462837BD4680BD80B58CB004AFF860BA
:104D8000B9603B601346FB80FB889B00184601F02E
:104D90007DFD78617B69002B0ED0A82001F076FDA7
:104DA000F861FB69002B03D0FB697A691A6305E09F
:104DB000786901F039FE01E00023FB61FB69002BFB
:104DC00017D0FB69002283F8A520FA8800230393FB
:104DD000FB690293FB6A0193BB6A00933B68B96865
:104DE000F86800F00FF8F86900F0B4F80123BB612F
:104DF00002E04FF0FF33BB61BB6918462037BD4668
:104E000080BD000080B588B000AFF860B9607A60FE
:104E10003B603B6B186B7B689B001A46A52101F039
:104E200023FF3B6B1A6B7B6803F18043013B9B00C4
:104E30001344BB61BB6923F00703BB61BB6903F08B
:104E40000703002B0BD04FF0500383F31188BFF3FF
:104E50006F8FBFF34F8F7B6100BF00BFFDE7BB6863
:104E6000002B1FD00023FB6112E0BA68FB691344DA
:104E700019783A6BFB69134434330A461A70BA68DE
:104E8000FB6913441B78002B06D0FB690133FB61DF
:104E9000FB690F2BE9D900E000BF3B6B002283F8D0
:104EA000432003E03B6B002283F83420BB6A372B9E
:104EB00001D93723BB623B6BBA6ADA623B6BBA6AD1
:104EC000DA643B6B00221A653B6B04331846FEF72D
:104ED00045FF3B6B18331846FEF740FF3B6B3A6BC0
:104EE0001A61BB6AC3F138023B6B9A613B6B3A6B48
:104EF0005A623B6B0022C3F8A0203B6B002283F870
:104F0000A4203B6B54334C220021184601F0ACFE28
:104F10003B6B0D4A9A653B6B0C4ADA653B6B0C4A5E
:104F20001A663A68F968B86901F05AFA02463B6BAA
:104F30001A60FB6A002B02D0FB6A3A6B1A6000BF52
:104F40002037BD4680BD00BF0C4C0020744C0020B3
:104F5000DC4C002080B582B000AF786001F074FBBB
:104F60002D4B1B6801332C4A13602C4B1B68002B04
:104F700009D12A4A7B681360274B1B68012B10D18B
:104F800000F02EFC0DE0264B1B68002B09D1234BB3
:104F90001B68DA6A7B68DB6A9A4202D81F4A7B6820
:104FA0001360204B1B6801331E4A13601D4B1A68A7
:104FB0007B685A647B68DA6A1B4B1B689A4203D988
:104FC0007B68DB6A184A13607B68DA6A13469B00C9
:104FD00013449B00154A1A447B6804331946104653
:104FE000FEF7C9FE01F062FB0D4B1B68002B0ED0D3
:104FF0000A4B1B68DA6A7B68DB6A9A4207D20C4B61
:105000004FF080521A60BFF34F8FBFF36F8F00BF16
:105010000837BD4680BD00BF8C0E0020B8090020B7
:10502000980E0020A80E0020940E0020BC0900203D
:1050300004ED00E080B584B000AF78600023FB6031
:105040007B68002B18D0144B1B68002B0BD04FF043
:10505000500383F31188BFF36F8FBFF34F8FBB6093
:1050600000BF00BFFDE700F08BF80021786800F07A
:1050700009FE00F093F8F860FB68002B07D1074B9E
:105080004FF080521A60BFF34F8FBFF36F8F00BF96
:105090001037BD4680BD00BFB40E002004ED00E017
:1050A00080B58AB004AF0023BB6000237B603A4622
:1050B000391D07F108031846FEF7FCFD39687B68C7
:1050C000BA68029201930023009300230A46244900
:1050D0002448FFF7F1FD0346234A1360224B1B6867
:1050E000002B02D001237B6101E000237B617B69FF
:1050F000012B02D100F01AFE78617B69012B1BD1D4
:105100004FF0500383F31188BFF36F8FBFF34F8FBE
:105110003B6100BF154B1B685433154A1360154B98
:105120004FF0FF321A60144B01221A60134B002219
:105130001A6001F0E5F90FE07B69B3F1FF3F0BD195
:105140004FF0500383F31188BFF36F8FBFF34F8F7E
:10515000FB6000BF00BFFDE700BF1837BD4680BD44
:10516000B06E0008B1570008B00E0020B80900204A
:1051700010000020AC0E0020980E0020900E0020A1
:1051800080B400AF044B1B680133034A136000BFB7
:10519000BD465DF8047B7047B40E002080B584B036
:1051A00000AF0023FB600023BB60424B1B68002B59
:1051B0000BD14FF0500383F31188BFF36F8FBFF310
:1051C0004F8F3B6000BF00BFFDE701F03DFA394B58
:1051D0001B68013B374A1360364B1B68002B62D1BA
:1051E000354B1B68002B5ED02FE0344BDB68DB684F
:1051F000FB60FB6818331846FEF71AFEFB680433A1
:105200001846FEF715FEFB68DA6A2D4B1B689A42BA
:1052100003D9FB68DB6A2A4A1360FB68DA6A134623
:105220009B0013449B00274A1A44FB680433194629
:105230001046FEF7A0FDFB68DA6A234B1B68DB6AA9
:105240009A4202D3214B01221A601C4B1B68002B8F
:10525000CBD1FB68002B01D000F066FB1C4B1B6818
:105260007B607B68002B10D000F046F80346002BD3
:1052700002D0164B01221A607B68013B7B607B6881
:10528000002BF1D1124B00221A60104B1B68002B2F
:1052900009D00123BB600F4B4FF080521A60BFF35F
:1052A0004F8FBFF36F8F01F001FABB6818461037BC
:1052B000BD4680BDB40E00208C0E00204C0E002098
:1052C000940E0020BC090020B8090020A00E002088
:1052D0009C0E002004ED00E080B483B000AF054BCD
:1052E0001B687B607B6818460C37BD465DF8047B05
:1052F000704700BF900E002080B586B000AF00233D
:105300007B614F4B1B68002B40F090804D4B1B681E
:1053100001333B614B4A3B6913603B69002B21D150
:10532000494B1B681B68002B0BD04FF0500383F3D5
:105330001188BFF36F8FBFF34F8F3B6000BF00BF7B
:10534000FDE7414B1B68FB60404B1B683E4A136006
:105350003E4AFB6813603E4B1B6801333C4A1360B6
:1053600000F0E2FA3B4B1B683A699A4249D3364B4C
:105370001B681B68002B04D1364B4FF0FF321A60BC
:105380003FE0314B1B68DB68DB68BB60BB685B6878
:105390007B603A697B689A4203D22E4A7B6813602D
:1053A0002FE0BB6804331846FEF742FDBB689B6ADA
:1053B000002B04D0BB6818331846FEF739FDBB68D4
:1053C000DA6A254B1B689A4203D9BB68DB6A224A1A
:1053D0001360BB68DA6A13469B0013449B001F4AA4
:1053E0001A44BB68043319461046FEF7C4FCBB6878
:1053F000DA6A1B4B1B68DB6A9A42B8D301237B61D4
:10540000B5E7174B1B68DA6A144913469B0013442F
:105410009B000B441B68012B01D901237B61114BBD
:105420001B68002B07D001237B6104E00E4B1B6837
:1054300001330D4A13607B6918461837BD4680BD9D
:10544000B40E0020900E0020440E0020480E0020D4
:10545000A40E0020AC0E0020940E0020BC090020F9
:10546000B8090020A00E00209C0E002080B485B05A
:1054700000AF2B4B1B68002B03D02A4B01221A6074
:1054800047E0284B00221A60274B1B68FB6011E0A5
:10549000FB68002B0BD14FF0500383F31188BFF34F
:1054A0006F8FBFF34F8F7B6000BF00BFFDE7FB68CE
:1054B000013BFB601D49FA6813469B0013449B00A7
:1054C0000B441B68002BE3D0FA6813469B0013447F
:1054D0009B00164A1344BB60BB685B685A68BB6894
:1054E0005A60BB685A68BB6808339A4204D1BB68EB
:1054F0005B685A68BB685A60BB685B68DB680C4ACB
:105500001360094AFB681360094B1B685433094A4E
:10551000136000BF1437BD465DF8047B704700BFC1
:10552000B40E0020A00E0020940E0020BC09002024
:10553000B80900201000002080B584B000AF78606A
:1055400039607B68002B0BD14FF0500383F3118837
:10555000BFF36F8FBFF34F8FFB6000BF00BFFDE74E
:10556000074B1B68183319467868FEF728FC0121A1
:10557000386800F087FB00BF1037BD4680BD00BF14
:10558000B809002080B586B000AFF860B9607A60D5
:10559000FB68002B0BD14FF0500383F31188BFF34E
:1055A0006F8FBFF34F8F7B6100BF00BFFDE70A4BDA
:1055B0001B6818331946F868FEF7DDFB7B68002B83
:1055C00002D04FF0FF33BB607968B86800F05AFB37
:1055D00000BF1837BD4680BDB809002080B586B031
:1055E00000AF78607B68DB68DB683B613B69002B60
:1055F0000BD14FF0500383F31188BFF36F8FBFF3CC
:105600004F8FFB6000BF00BFFDE73B6918331846B2
:10561000FEF70EFC1D4B1B68002B1DD13B690433AC
:105620001846FEF705FC3B69DA6A194B1B689A427B
:1056300003D93B69DB6A164A13603B69DA6A134691
:105640009B0013449B00134A1A443B6904331946D8
:105650001046FEF790FB05E03B69183319460E48EB
:10566000FEF789FB3B69DA6A0C4B1B68DB6A9A42DE
:1056700005D901237B610A4B01221A6001E0002356
:105680007B617B6918461837BD4680BDB40E00208B
:10569000940E0020BC0900204C0E0020B809002008
:1056A000A00E002080B483B000AF7860064B1A686B
:1056B0007B681A60054B1A687B685A6000BF0C371C
:1056C000BD465DF8047B7047A40E0020900E0020BC
:1056D00080B588B000AF786039607B68002B0BD153
:1056E0004FF0500383F31188BFF36F8FBFF34F8FD9
:1056F0003B6100BF00BFFDE73B68002B0BD14FF0C3
:10570000500383F31188BFF36F8FBFF34F8FFB609C
:1057100000BF00BFFDE700F097FF1D4B1B68BB619A
:105720007B685B68BA69D31A7B613B681B68B3F11D
:10573000FF3F02D10023FB6123E07B681A68154B11
:105740001B689A4207D07B685B68BA699A4202D3A9
:105750000123FB6115E03B681B687A699A420BD212
:105760003B681A687B69D21A3B681A607868FFF751
:1057700099FF0023FB6104E03B6800221A600123CB
:10578000FB6100F093FFFB6918462037BD4680BDE2
:10579000900E0020A40E002080B400AF034B012225
:1057A0001A6000BFBD465DF8047B7047A00E002064
:1057B00080B582B000AF786000F052F8064B1B68ED
:1057C000012BF9D9054B4FF080521A60BFF34F8F70
:1057D000BFF36F8FF0E700BFBC09002004ED00E0CD
:1057E00080B582B000AF00237B600CE07A6813467E
:1057F0009B0013449B00124A13441846FEF78EFA8E
:105800007B6801337B607B68372BEFD90D48FEF74F
:1058100085FA0D48FEF782FA0C48FEF77FFA0C482D
:10582000FEF77CFA0B48FEF779FA0B4B054A1A6033
:105830000A4B054A1A6000BF0837BD4680BD00BF4D
:10584000BC0900201C0E0020300E00204C0E002051
:10585000600E0020780E0020440E0020480E00202C
:1058600080B582B000AF19E000F0EEFE104BDB68AF
:10587000DB687B607B6804331846FEF7D9FA0D4B72
:105880001B68013B0B4A13600B4B1B68013B0A4A28
:10589000136000F00BFF786800F010F8064B1B68EF
:1058A000002BE1D100BF00BF0837BD4680BD00BF5F
:1058B000600E00208C0E0020740E002080B584B095
:1058C00000AF78607B685433184601F0D5F97B68E7
:1058D00093F8A530002B08D17B681B6B184601F0AC
:1058E000A3F8786801F0A0F819E07B6893F8A53078
:1058F000012B03D1786801F097F810E07B6893F8EA
:10590000A530022B0BD04FF0500383F31188BFF367
:105910006F8FBFF34F8FFB6000BF00BFFDE700BF7D
:105920001037BD4680BD000080B483B000AF0C4B83
:105930001B681B68002B04D10A4B4FF0FF321A6022
:1059400008E0074B1B68DB68DB687B607B685B6893
:10595000044A136000BF0C37BD465DF8047B7047F6
:10596000440E0020AC0E002080B483B000AF0B4B7F
:105970001B68002B02D101237B6008E0084B1B68E9
:10598000002B02D102237B6001E000237B607B6857
:1059900018460C37BD465DF8047B7047980E002012
:1059A000B40E002080B584B000AF78607B68BB6027
:1059B0000023FB607B68002B51D0BB68DA6A2A4B5E
:1059C0001B68DB6A9A4241D2BB689B69002B06DBED
:1059D000254B1B68DB6AC3F13802BB689A61BB6860
:1059E0005969BB68DA6A13469B0013449B001F4A3F
:1059F0001344994222D1BB6804331846FEF718FAC3
:105A0000194B1B68DA6ABB68DA62BB68DA6A184B42
:105A10001B689A4203D9BB68DB6A154A1360BB68EE
:105A2000DA6A13469B0013449B00104A1A44BB6871
:105A3000043319461046FEF79EF904E00A4B1B6832
:105A4000DA6ABB68DA620123FB6008E0BB68DA6CE3
:105A5000054B1B68DB6A9A4201D20123FB60FB689D
:105A600018461037BD4680BDB8090020BC0900208B
:105A7000940E002080B586B000AF78607B683B61F3
:105A800000237B617B68002B58D02F4B1B683A6941
:105A90009A420BD04FF0500383F31188BFF36F8FFE
:105AA000BFF34F8FFB6000BF00BFFDE73B691B6D7D
:105AB000002B0BD14FF0500383F31188BFF36F8F8E
:105AC000BFF34F8FBB6000BF00BFFDE73B691B6D9D
:105AD0005A1E3B691A653B69DA6A3B69DB6C9A427C
